{
  "_format": "hh-sol-artifact-1",
  "contractName": "Zebra",
  "sourceName": "contracts/Zebra.sol",
  "abi": [
    {
      "inputs": [],
      "stateMutability": "nonpayable",
      "type": "constructor"
    },
    {
      "anonymous": false,
      "inputs": [
        {
          "indexed": true,
          "internalType": "address",
          "name": "owner",
          "type": "address"
        },
        {
          "indexed": true,
          "internalType": "address",
          "name": "approved",
          "type": "address"
        },
        {
          "indexed": true,
          "internalType": "uint256",
          "name": "tokenId",
          "type": "uint256"
        }
      ],
      "name": "Approval",
      "type": "event"
    },
    {
      "anonymous": false,
      "inputs": [
        {
          "indexed": true,
          "internalType": "address",
          "name": "owner",
          "type": "address"
        },
        {
          "indexed": true,
          "internalType": "address",
          "name": "operator",
          "type": "address"
        },
        {
          "indexed": false,
          "internalType": "bool",
          "name": "approved",
          "type": "bool"
        }
      ],
      "name": "ApprovalForAll",
      "type": "event"
    },
    {
      "anonymous": false,
      "inputs": [
        {
          "indexed": true,
          "internalType": "address",
          "name": "previousOwner",
          "type": "address"
        },
        {
          "indexed": true,
          "internalType": "address",
          "name": "newOwner",
          "type": "address"
        }
      ],
      "name": "OwnershipTransferred",
      "type": "event"
    },
    {
      "anonymous": false,
      "inputs": [
        {
          "indexed": false,
          "internalType": "address",
          "name": "account",
          "type": "address"
        }
      ],
      "name": "Paused",
      "type": "event"
    },
    {
      "anonymous": false,
      "inputs": [
        {
          "indexed": true,
          "internalType": "address",
          "name": "from",
          "type": "address"
        },
        {
          "indexed": true,
          "internalType": "address",
          "name": "to",
          "type": "address"
        },
        {
          "indexed": true,
          "internalType": "uint256",
          "name": "tokenId",
          "type": "uint256"
        }
      ],
      "name": "Transfer",
      "type": "event"
    },
    {
      "anonymous": false,
      "inputs": [
        {
          "indexed": false,
          "internalType": "address",
          "name": "account",
          "type": "address"
        }
      ],
      "name": "Unpaused",
      "type": "event"
    },
    {
      "inputs": [
        {
          "internalType": "address",
          "name": "to",
          "type": "address"
        },
        {
          "internalType": "uint256",
          "name": "tokenId",
          "type": "uint256"
        }
      ],
      "name": "approve",
      "outputs": [],
      "stateMutability": "nonpayable",
      "type": "function"
    },
    {
      "inputs": [
        {
          "internalType": "address",
          "name": "owner",
          "type": "address"
        }
      ],
      "name": "balanceOf",
      "outputs": [
        {
          "internalType": "uint256",
          "name": "",
          "type": "uint256"
        }
      ],
      "stateMutability": "view",
      "type": "function"
    },
    {
      "inputs": [
        {
          "internalType": "string",
          "name": "tokenURI",
          "type": "string"
        },
        {
          "internalType": "uint256",
          "name": "_mintAmount",
          "type": "uint256"
        }
      ],
      "name": "createToken",
      "outputs": [],
      "stateMutability": "payable",
      "type": "function"
    },
    {
      "inputs": [
        {
          "internalType": "uint256",
          "name": "tokenId",
          "type": "uint256"
        }
      ],
      "name": "getApproved",
      "outputs": [
        {
          "internalType": "address",
          "name": "",
          "type": "address"
        }
      ],
      "stateMutability": "view",
      "type": "function"
    },
    {
      "inputs": [
        {
          "internalType": "uint256",
          "name": "_mintAmount",
          "type": "uint256"
        }
      ],
      "name": "getMintingPrice",
      "outputs": [
        {
          "internalType": "uint256",
          "name": "",
          "type": "uint256"
        }
      ],
      "stateMutability": "view",
      "type": "function"
    },
    {
      "inputs": [
        {
          "internalType": "address",
          "name": "owner",
          "type": "address"
        },
        {
          "internalType": "address",
          "name": "operator",
          "type": "address"
        }
      ],
      "name": "isApprovedForAll",
      "outputs": [
        {
          "internalType": "bool",
          "name": "",
          "type": "bool"
        }
      ],
      "stateMutability": "view",
      "type": "function"
    },
    {
      "inputs": [],
      "name": "name",
      "outputs": [
        {
          "internalType": "string",
          "name": "",
          "type": "string"
        }
      ],
      "stateMutability": "view",
      "type": "function"
    },
    {
      "inputs": [],
      "name": "owner",
      "outputs": [
        {
          "internalType": "address",
          "name": "",
          "type": "address"
        }
      ],
      "stateMutability": "view",
      "type": "function"
    },
    {
      "inputs": [
        {
          "internalType": "uint256",
          "name": "tokenId",
          "type": "uint256"
        }
      ],
      "name": "ownerOf",
      "outputs": [
        {
          "internalType": "address",
          "name": "",
          "type": "address"
        }
      ],
      "stateMutability": "view",
      "type": "function"
    },
    {
      "inputs": [],
      "name": "pause",
      "outputs": [],
      "stateMutability": "nonpayable",
      "type": "function"
    },
    {
      "inputs": [],
      "name": "paused",
      "outputs": [
        {
          "internalType": "bool",
          "name": "",
          "type": "bool"
        }
      ],
      "stateMutability": "view",
      "type": "function"
    },
    {
      "inputs": [],
      "name": "renounceOwnership",
      "outputs": [],
      "stateMutability": "nonpayable",
      "type": "function"
    },
    {
      "inputs": [
        {
          "internalType": "address",
          "name": "from",
          "type": "address"
        },
        {
          "internalType": "address",
          "name": "to",
          "type": "address"
        },
        {
          "internalType": "uint256",
          "name": "tokenId",
          "type": "uint256"
        }
      ],
      "name": "safeTransferFrom",
      "outputs": [],
      "stateMutability": "nonpayable",
      "type": "function"
    },
    {
      "inputs": [
        {
          "internalType": "address",
          "name": "from",
          "type": "address"
        },
        {
          "internalType": "address",
          "name": "to",
          "type": "address"
        },
        {
          "internalType": "uint256",
          "name": "tokenId",
          "type": "uint256"
        },
        {
          "internalType": "bytes",
          "name": "_data",
          "type": "bytes"
        }
      ],
      "name": "safeTransferFrom",
      "outputs": [],
      "stateMutability": "nonpayable",
      "type": "function"
    },
    {
      "inputs": [
        {
          "internalType": "address",
          "name": "operator",
          "type": "address"
        },
        {
          "internalType": "bool",
          "name": "approved",
          "type": "bool"
        }
      ],
      "name": "setApprovalForAll",
      "outputs": [],
      "stateMutability": "nonpayable",
      "type": "function"
    },
    {
      "inputs": [
        {
          "internalType": "bytes4",
          "name": "interfaceId",
          "type": "bytes4"
        }
      ],
      "name": "supportsInterface",
      "outputs": [
        {
          "internalType": "bool",
          "name": "",
          "type": "bool"
        }
      ],
      "stateMutability": "view",
      "type": "function"
    },
    {
      "inputs": [],
      "name": "symbol",
      "outputs": [
        {
          "internalType": "string",
          "name": "",
          "type": "string"
        }
      ],
      "stateMutability": "view",
      "type": "function"
    },
    {
      "inputs": [
        {
          "internalType": "uint256",
          "name": "tokenId",
          "type": "uint256"
        }
      ],
      "name": "tokenURI",
      "outputs": [
        {
          "internalType": "string",
          "name": "",
          "type": "string"
        }
      ],
      "stateMutability": "view",
      "type": "function"
    },
    {
      "inputs": [
        {
          "internalType": "address",
          "name": "from",
          "type": "address"
        },
        {
          "internalType": "address",
          "name": "to",
          "type": "address"
        },
        {
          "internalType": "uint256",
          "name": "tokenId",
          "type": "uint256"
        }
      ],
      "name": "transferFrom",
      "outputs": [],
      "stateMutability": "nonpayable",
      "type": "function"
    },
    {
      "inputs": [
        {
          "internalType": "address",
          "name": "newOwner",
          "type": "address"
        }
      ],
      "name": "transferOwnership",
      "outputs": [],
      "stateMutability": "nonpayable",
      "type": "function"
    },
    {
      "inputs": [],
      "name": "unpause",
      "outputs": [],
      "stateMutability": "nonpayable",
      "type": "function"
    }
  ],
  "bytecode": "0x60806040526601c6bf526340006009553480156200001c57600080fd5b506040518060400160405280600581526020017f5a656272610000000000000000000000000000000000000000000000000000008152506040518060400160405280600381526020017f5a425200000000000000000000000000000000000000000000000000000000008152508160009080519060200190620000a1929190620001cc565b508060019080519060200190620000ba929190620001cc565b5050506000600760006101000a81548160ff021916908315150217905550620000f8620000ec620000fe60201b60201c565b6200010660201b60201c565b620002e1565b600033905090565b6000600760019054906101000a900473ffffffffffffffffffffffffffffffffffffffff16905081600760016101000a81548173ffffffffffffffffffffffffffffffffffffffff021916908373ffffffffffffffffffffffffffffffffffffffff1602179055508173ffffffffffffffffffffffffffffffffffffffff168173ffffffffffffffffffffffffffffffffffffffff167f8be0079c531659141344cd1fd0a4f28419497f9722a3daafe3b4186f6b6457e060405160405180910390a35050565b828054620001da906200027c565b90600052602060002090601f016020900481019282620001fe57600085556200024a565b82601f106200021957805160ff19168380011785556200024a565b828001600101855582156200024a579182015b82811115620002495782518255916020019190600101906200022c565b5b5090506200025991906200025d565b5090565b5b80821115620002785760008160009055506001016200025e565b5090565b600060028204905060018216806200029557607f821691505b60208210811415620002ac57620002ab620002b2565b5b50919050565b7f4e487b7100000000000000000000000000000000000000000000000000000000600052602260045260246000fd5b6136df80620002f16000396000f3fe60806040526004361061012a5760003560e01c8063715018a6116100ab578063a22cb4651161006f578063a22cb465146103ab578063b88d4fde146103d4578063c87b56dd146103fd578063e985e9c51461043a578063eb1635ed14610477578063f2fde38b146104b45761012a565b8063715018a61461030b57806372b3b620146103225780638456cb591461033e5780638da5cb5b1461035557806395d89b41146103805761012a565b80633f4ba83a116100f25780633f4ba83a1461022657806342842e0e1461023d5780635c975abb146102665780636352211e1461029157806370a08231146102ce5761012a565b806301ffc9a71461012f57806306fdde031461016c578063081812fc14610197578063095ea7b3146101d457806323b872dd146101fd575b600080fd5b34801561013b57600080fd5b506101566004803603810190610151919061239b565b6104dd565b6040516101639190612906565b60405180910390f35b34801561017857600080fd5b506101816105bf565b60405161018e9190612921565b60405180910390f35b3480156101a357600080fd5b506101be60048036038101906101b99190612441565b610651565b6040516101cb919061289f565b60405180910390f35b3480156101e057600080fd5b506101fb60048036038101906101f6919061235f565b6106d6565b005b34801561020957600080fd5b50610224600480360381019061021f9190612259565b6107ee565b005b34801561023257600080fd5b5061023b61084e565b005b34801561024957600080fd5b50610264600480360381019061025f9190612259565b6108d4565b005b34801561027257600080fd5b5061027b6108f4565b6040516102889190612906565b60405180910390f35b34801561029d57600080fd5b506102b860048036038101906102b39190612441565b61090b565b6040516102c5919061289f565b60405180910390f35b3480156102da57600080fd5b506102f560048036038101906102f091906121f4565b6109bd565b6040516103029190612c03565b60405180910390f35b34801561031757600080fd5b50610320610a75565b005b61033c600480360381019061033791906123ed565b610afd565b005b34801561034a57600080fd5b50610353610c46565b005b34801561036157600080fd5b5061036a610ccc565b604051610377919061289f565b60405180910390f35b34801561038c57600080fd5b50610395610cf6565b6040516103a29190612921565b60405180910390f35b3480156103b757600080fd5b506103d260048036038101906103cd9190612323565b610d88565b005b3480156103e057600080fd5b506103fb60048036038101906103f691906122a8565b610f09565b005b34801561040957600080fd5b50610424600480360381019061041f9190612441565b610f6b565b6040516104319190612921565b60405180910390f35b34801561044657600080fd5b50610461600480360381019061045c919061221d565b6110bd565b60405161046e9190612906565b60405180910390f35b34801561048357600080fd5b5061049e60048036038101906104999190612441565b611151565b6040516104ab9190612c03565b60405180910390f35b3480156104c057600080fd5b506104db60048036038101906104d691906121f4565b611168565b005b60007f80ac58cd000000000000000000000000000000000000000000000000000000007bffffffffffffffffffffffffffffffffffffffffffffffffffffffff1916827bffffffffffffffffffffffffffffffffffffffffffffffffffffffff191614806105a857507f5b5e139f000000000000000000000000000000000000000000000000000000007bffffffffffffffffffffffffffffffffffffffffffffffffffffffff1916827bffffffffffffffffffffffffffffffffffffffffffffffffffffffff1916145b806105b857506105b782611260565b5b9050919050565b6060600080546105ce90612eb3565b80601f01602080910402602001604051908101604052809291908181526020018280546105fa90612eb3565b80156106475780601f1061061c57610100808354040283529160200191610647565b820191906000526020600020905b81548152906001019060200180831161062a57829003601f168201915b5050505050905090565b600061065c826112ca565b61069b576040517f08c379a000000000000000000000000000000000000000000000000000000000815260040161069290612b23565b60405180910390fd5b6004600083815260200190815260200160002060009054906101000a900473ffffffffffffffffffffffffffffffffffffffff169050919050565b60006106e18261090b565b90508073ffffffffffffffffffffffffffffffffffffffff168373ffffffffffffffffffffffffffffffffffffffff161415610752576040517f08c379a000000000000000000000000000000000000000000000000000000000815260040161074990612ba3565b60405180910390fd5b8073ffffffffffffffffffffffffffffffffffffffff16610771611336565b73ffffffffffffffffffffffffffffffffffffffff1614806107a0575061079f8161079a611336565b6110bd565b5b6107df576040517f08c379a00000000000000000000000000000000000000000000000000000000081526004016107d690612a63565b60405180910390fd5b6107e9838361133e565b505050565b6107ff6107f9611336565b826113f7565b61083e576040517f08c379a000000000000000000000000000000000000000000000000000000000815260040161083590612bc3565b60405180910390fd5b6108498383836114d5565b505050565b610856611336565b73ffffffffffffffffffffffffffffffffffffffff16610874610ccc565b73ffffffffffffffffffffffffffffffffffffffff16146108ca576040517f08c379a00000000000000000000000000000000000000000000000000000000081526004016108c190612b43565b60405180910390fd5b6108d2611731565b565b6108ef83838360405180602001604052806000815250610f09565b505050565b6000600760009054906101000a900460ff16905090565b6000806002600084815260200190815260200160002060009054906101000a900473ffffffffffffffffffffffffffffffffffffffff169050600073ffffffffffffffffffffffffffffffffffffffff168173ffffffffffffffffffffffffffffffffffffffff1614156109b4576040517f08c379a00000000000000000000000000000000000000000000000000000000081526004016109ab90612aa3565b60405180910390fd5b80915050919050565b60008073ffffffffffffffffffffffffffffffffffffffff168273ffffffffffffffffffffffffffffffffffffffff161415610a2e576040517f08c379a0000000000000000000000000000000000000000000000000000000008152600401610a2590612a83565b60405180910390fd5b600360008373ffffffffffffffffffffffffffffffffffffffff1673ffffffffffffffffffffffffffffffffffffffff168152602001908152602001600020549050919050565b610a7d611336565b73ffffffffffffffffffffffffffffffffffffffff16610a9b610ccc565b73ffffffffffffffffffffffffffffffffffffffff1614610af1576040517f08c379a0000000000000000000000000000000000000000000000000000000008152600401610ae890612b43565b60405180910390fd5b610afb60006117d3565b565b610b056108f4565b15610b45576040517f08c379a0000000000000000000000000000000000000000000000000000000008152600401610b3c90612a43565b60405180910390fd5b60008111610b88576040517f08c379a0000000000000000000000000000000000000000000000000000000008152600401610b7f90612a23565b60405180910390fd5b6009543414610bcc576040517f08c379a0000000000000000000000000000000000000000000000000000000008152600401610bc390612be3565b60405180910390fd5b6000600190505b818111610c41576000610be66008611899565b9050610bf233826118a7565b60008483604051602001610c07929190612877565b6040516020818303038152906040529050610c228282611a75565b610c2c6008611ae9565b50508080610c3990612f16565b915050610bd3565b505050565b610c4e611336565b73ffffffffffffffffffffffffffffffffffffffff16610c6c610ccc565b73ffffffffffffffffffffffffffffffffffffffff1614610cc2576040517f08c379a0000000000000000000000000000000000000000000000000000000008152600401610cb990612b43565b60405180910390fd5b610cca611aff565b565b6000600760019054906101000a900473ffffffffffffffffffffffffffffffffffffffff16905090565b606060018054610d0590612eb3565b80601f0160208091040260200160405190810160405280929190818152602001828054610d3190612eb3565b8015610d7e5780601f10610d5357610100808354040283529160200191610d7e565b820191906000526020600020905b815481529060010190602001808311610d6157829003601f168201915b5050505050905090565b610d90611336565b73ffffffffffffffffffffffffffffffffffffffff168273ffffffffffffffffffffffffffffffffffffffff161415610dfe576040517f08c379a0000000000000000000000000000000000000000000000000000000008152600401610df5906129e3565b60405180910390fd5b8060056000610e0b611336565b73ffffffffffffffffffffffffffffffffffffffff1673ffffffffffffffffffffffffffffffffffffffff16815260200190815260200160002060008473ffffffffffffffffffffffffffffffffffffffff1673ffffffffffffffffffffffffffffffffffffffff16815260200190815260200160002060006101000a81548160ff0219169083151502179055508173ffffffffffffffffffffffffffffffffffffffff16610eb8611336565b73ffffffffffffffffffffffffffffffffffffffff167f17307eab39ab6107e8899845ad3d59bd9653f200f220920489ca2b5937696c3183604051610efd9190612906565b60405180910390a35050565b610f1a610f14611336565b836113f7565b610f59576040517f08c379a0000000000000000000000000000000000000000000000000000000008152600401610f5090612bc3565b60405180910390fd5b610f6584848484611ba2565b50505050565b6060610f76826112ca565b610fb5576040517f08c379a0000000000000000000000000000000000000000000000000000000008152600401610fac90612b03565b60405180910390fd5b6000600660008481526020019081526020016000208054610fd590612eb3565b80601f016020809104026020016040519081016040528092919081815260200182805461100190612eb3565b801561104e5780601f106110235761010080835404028352916020019161104e565b820191906000526020600020905b81548152906001019060200180831161103157829003601f168201915b50505050509050600061105f611bfe565b90506000815114156110755781925050506110b8565b6000825111156110aa578082604051602001611092929190612853565b604051602081830303815290604052925050506110b8565b6110b384611c15565b925050505b919050565b6000600560008473ffffffffffffffffffffffffffffffffffffffff1673ffffffffffffffffffffffffffffffffffffffff16815260200190815260200160002060008373ffffffffffffffffffffffffffffffffffffffff1673ffffffffffffffffffffffffffffffffffffffff16815260200190815260200160002060009054906101000a900460ff16905092915050565b6000816009546111619190612d6f565b9050919050565b611170611336565b73ffffffffffffffffffffffffffffffffffffffff1661118e610ccc565b73ffffffffffffffffffffffffffffffffffffffff16146111e4576040517f08c379a00000000000000000000000000000000000000000000000000000000081526004016111db90612b43565b60405180910390fd5b600073ffffffffffffffffffffffffffffffffffffffff168173ffffffffffffffffffffffffffffffffffffffff161415611254576040517f08c379a000000000000000000000000000000000000000000000000000000000815260040161124b90612983565b60405180910390fd5b61125d816117d3565b50565b60007f01ffc9a7000000000000000000000000000000000000000000000000000000007bffffffffffffffffffffffffffffffffffffffffffffffffffffffff1916827bffffffffffffffffffffffffffffffffffffffffffffffffffffffff1916149050919050565b60008073ffffffffffffffffffffffffffffffffffffffff166002600084815260200190815260200160002060009054906101000a900473ffffffffffffffffffffffffffffffffffffffff1673ffffffffffffffffffffffffffffffffffffffff1614159050919050565b600033905090565b816004600083815260200190815260200160002060006101000a81548173ffffffffffffffffffffffffffffffffffffffff021916908373ffffffffffffffffffffffffffffffffffffffff160217905550808273ffffffffffffffffffffffffffffffffffffffff166113b18361090b565b73ffffffffffffffffffffffffffffffffffffffff167f8c5be1e5ebec7d5bd14f71427d1e84f3dd0314c0f7b2291e5b200ac8c7c3b92560405160405180910390a45050565b6000611402826112ca565b611441576040517f08c379a000000000000000000000000000000000000000000000000000000000815260040161143890612a03565b60405180910390fd5b600061144c8361090b565b90508073ffffffffffffffffffffffffffffffffffffffff168473ffffffffffffffffffffffffffffffffffffffff1614806114bb57508373ffffffffffffffffffffffffffffffffffffffff166114a384610651565b73ffffffffffffffffffffffffffffffffffffffff16145b806114cc57506114cb81856110bd565b5b91505092915050565b8273ffffffffffffffffffffffffffffffffffffffff166114f58261090b565b73ffffffffffffffffffffffffffffffffffffffff161461154b576040517f08c379a000000000000000000000000000000000000000000000000000000000815260040161154290612b63565b60405180910390fd5b600073ffffffffffffffffffffffffffffffffffffffff168273ffffffffffffffffffffffffffffffffffffffff1614156115bb576040517f08c379a00000000000000000000000000000000000000000000000000000000081526004016115b2906129c3565b60405180910390fd5b6115c6838383611cbc565b6115d160008261133e565b6001600360008573ffffffffffffffffffffffffffffffffffffffff1673ffffffffffffffffffffffffffffffffffffffff16815260200190815260200160002060008282546116219190612dc9565b925050819055506001600360008473ffffffffffffffffffffffffffffffffffffffff1673ffffffffffffffffffffffffffffffffffffffff16815260200190815260200160002060008282546116789190612ce8565b92505081905550816002600083815260200190815260200160002060006101000a81548173ffffffffffffffffffffffffffffffffffffffff021916908373ffffffffffffffffffffffffffffffffffffffff160217905550808273ffffffffffffffffffffffffffffffffffffffff168473ffffffffffffffffffffffffffffffffffffffff167fddf252ad1be2c89b69c2b068fc378daa952ba7f163c4a11628f55a4df523b3ef60405160405180910390a4505050565b6117396108f4565b611778576040517f08c379a000000000000000000000000000000000000000000000000000000000815260040161176f90612943565b60405180910390fd5b6000600760006101000a81548160ff0219169083151502179055507f5db9ee0a495bf2e6ff9c91a7834c1ba4fdd244a5e8aa4e537bd38aeae4b073aa6117bc611336565b6040516117c9919061289f565b60405180910390a1565b6000600760019054906101000a900473ffffffffffffffffffffffffffffffffffffffff16905081600760016101000a81548173ffffffffffffffffffffffffffffffffffffffff021916908373ffffffffffffffffffffffffffffffffffffffff1602179055508173ffffffffffffffffffffffffffffffffffffffff168173ffffffffffffffffffffffffffffffffffffffff167f8be0079c531659141344cd1fd0a4f28419497f9722a3daafe3b4186f6b6457e060405160405180910390a35050565b600081600001549050919050565b600073ffffffffffffffffffffffffffffffffffffffff168273ffffffffffffffffffffffffffffffffffffffff161415611917576040517f08c379a000000000000000000000000000000000000000000000000000000000815260040161190e90612ae3565b60405180910390fd5b611920816112ca565b15611960576040517f08c379a0000000000000000000000000000000000000000000000000000000008152600401611957906129a3565b60405180910390fd5b61196c60008383611cbc565b6001600360008473ffffffffffffffffffffffffffffffffffffffff1673ffffffffffffffffffffffffffffffffffffffff16815260200190815260200160002060008282546119bc9190612ce8565b92505081905550816002600083815260200190815260200160002060006101000a81548173ffffffffffffffffffffffffffffffffffffffff021916908373ffffffffffffffffffffffffffffffffffffffff160217905550808273ffffffffffffffffffffffffffffffffffffffff16600073ffffffffffffffffffffffffffffffffffffffff167fddf252ad1be2c89b69c2b068fc378daa952ba7f163c4a11628f55a4df523b3ef60405160405180910390a45050565b611a7e826112ca565b611abd576040517f08c379a0000000000000000000000000000000000000000000000000000000008152600401611ab490612ac3565b60405180910390fd5b80600660008481526020019081526020016000209080519060200190611ae4929190612018565b505050565b6001816000016000828254019250508190555050565b611b076108f4565b15611b47576040517f08c379a0000000000000000000000000000000000000000000000000000000008152600401611b3e90612a43565b60405180910390fd5b6001600760006101000a81548160ff0219169083151502179055507f62e78cea01bee320cd4e420270b5ea74000d11b0c9f74754ebdbfc544b05a258611b8b611336565b604051611b98919061289f565b60405180910390a1565b611bad8484846114d5565b611bb984848484611cc1565b611bf8576040517f08c379a0000000000000000000000000000000000000000000000000000000008152600401611bef90612963565b60405180910390fd5b50505050565b606060405180602001604052806000815250905090565b6060611c20826112ca565b611c5f576040517f08c379a0000000000000000000000000000000000000000000000000000000008152600401611c5690612b83565b60405180910390fd5b6000611c69611bfe565b90506000815111611c895760405180602001604052806000815250611cb4565b80611c9384611e58565b604051602001611ca4929190612853565b6040516020818303038152906040525b915050919050565b505050565b6000611ce28473ffffffffffffffffffffffffffffffffffffffff16612005565b15611e4b578373ffffffffffffffffffffffffffffffffffffffff1663150b7a02611d0b611336565b8786866040518563ffffffff1660e01b8152600401611d2d94939291906128ba565b602060405180830381600087803b158015611d4757600080fd5b505af1925050508015611d7857506040513d601f19601f82011682018060405250810190611d7591906123c4565b60015b611dfb573d8060008114611da8576040519150601f19603f3d011682016040523d82523d6000602084013e611dad565b606091505b50600081511415611df3576040517f08c379a0000000000000000000000000000000000000000000000000000000008152600401611dea90612963565b60405180910390fd5b805181602001fd5b63150b7a0260e01b7bffffffffffffffffffffffffffffffffffffffffffffffffffffffff1916817bffffffffffffffffffffffffffffffffffffffffffffffffffffffff191614915050611e50565b600190505b949350505050565b60606000821415611ea0576040518060400160405280600181526020017f30000000000000000000000000000000000000000000000000000000000000008152509050612000565b600082905060005b60008214611ed2578080611ebb90612f16565b915050600a82611ecb9190612d3e565b9150611ea8565b60008167ffffffffffffffff811115611f14577f4e487b7100000000000000000000000000000000000000000000000000000000600052604160045260246000fd5b6040519080825280601f01601f191660200182016040528015611f465781602001600182028036833780820191505090505b5090505b60008514611ff957600182611f5f9190612dc9565b9150600a85611f6e9190612f69565b6030611f7a9190612ce8565b60f81b818381518110611fb6577f4e487b7100000000000000000000000000000000000000000000000000000000600052603260045260246000fd5b60200101907effffffffffffffffffffffffffffffffffffffffffffffffffffffffffffff1916908160001a905350600a85611ff29190612d3e565b9450611f4a565b8093505050505b919050565b600080823b905060008111915050919050565b82805461202490612eb3565b90600052602060002090601f016020900481019282612046576000855561208d565b82601f1061205f57805160ff191683800117855561208d565b8280016001018555821561208d579182015b8281111561208c578251825591602001919060010190612071565b5b50905061209a919061209e565b5090565b5b808211156120b757600081600090555060010161209f565b5090565b60006120ce6120c984612c43565b612c1e565b9050828152602081018484840111156120e657600080fd5b6120f1848285612e71565b509392505050565b600061210c61210784612c74565b612c1e565b90508281526020810184848401111561212457600080fd5b61212f848285612e71565b509392505050565b6000813590506121468161364d565b92915050565b60008135905061215b81613664565b92915050565b6000813590506121708161367b565b92915050565b6000815190506121858161367b565b92915050565b600082601f83011261219c57600080fd5b81356121ac8482602086016120bb565b91505092915050565b600082601f8301126121c657600080fd5b81356121d68482602086016120f9565b91505092915050565b6000813590506121ee81613692565b92915050565b60006020828403121561220657600080fd5b600061221484828501612137565b91505092915050565b6000806040838503121561223057600080fd5b600061223e85828601612137565b925050602061224f85828601612137565b9150509250929050565b60008060006060848603121561226e57600080fd5b600061227c86828701612137565b935050602061228d86828701612137565b925050604061229e868287016121df565b9150509250925092565b600080600080608085870312156122be57600080fd5b60006122cc87828801612137565b94505060206122dd87828801612137565b93505060406122ee878288016121df565b925050606085013567ffffffffffffffff81111561230b57600080fd5b6123178782880161218b565b91505092959194509250565b6000806040838503121561233657600080fd5b600061234485828601612137565b92505060206123558582860161214c565b9150509250929050565b6000806040838503121561237257600080fd5b600061238085828601612137565b9250506020612391858286016121df565b9150509250929050565b6000602082840312156123ad57600080fd5b60006123bb84828501612161565b91505092915050565b6000602082840312156123d657600080fd5b60006123e484828501612176565b91505092915050565b6000806040838503121561240057600080fd5b600083013567ffffffffffffffff81111561241a57600080fd5b612426858286016121b5565b9250506020612437858286016121df565b9150509250929050565b60006020828403121561245357600080fd5b6000612461848285016121df565b91505092915050565b61247381612dfd565b82525050565b61248281612e0f565b82525050565b600061249382612ca5565b61249d8185612cbb565b93506124ad818560208601612e80565b6124b681613056565b840191505092915050565b60006124cc82612cb0565b6124d68185612ccc565b93506124e6818560208601612e80565b6124ef81613056565b840191505092915050565b600061250582612cb0565b61250f8185612cdd565b935061251f818560208601612e80565b80840191505092915050565b6000612538601483612ccc565b915061254382613067565b602082019050919050565b600061255b603283612ccc565b915061256682613090565b604082019050919050565b600061257e602683612ccc565b9150612589826130df565b604082019050919050565b60006125a1601c83612ccc565b91506125ac8261312e565b602082019050919050565b60006125c4602483612ccc565b91506125cf82613157565b604082019050919050565b60006125e7601983612ccc565b91506125f2826131a6565b602082019050919050565b600061260a602c83612ccc565b9150612615826131cf565b604082019050919050565b600061262d602583612ccc565b91506126388261321e565b604082019050919050565b6000612650601083612ccc565b915061265b8261326d565b602082019050919050565b6000612673603883612ccc565b915061267e82613296565b604082019050919050565b6000612696602a83612ccc565b91506126a1826132e5565b604082019050919050565b60006126b9602983612ccc565b91506126c482613334565b604082019050919050565b60006126dc602e83612ccc565b91506126e782613383565b604082019050919050565b60006126ff602083612ccc565b915061270a826133d2565b602082019050919050565b6000612722603183612ccc565b915061272d826133fb565b604082019050919050565b6000612745602c83612ccc565b91506127508261344a565b604082019050919050565b6000612768602083612ccc565b915061277382613499565b602082019050919050565b600061278b602983612ccc565b9150612796826134c2565b604082019050919050565b60006127ae602f83612ccc565b91506127b982613511565b604082019050919050565b60006127d1602183612ccc565b91506127dc82613560565b604082019050919050565b60006127f4603183612ccc565b91506127ff826135af565b604082019050919050565b6000612817603283612ccc565b9150612822826135fe565b604082019050919050565b61283681612e67565b82525050565b61284d61284882612e67565b612f5f565b82525050565b600061285f82856124fa565b915061286b82846124fa565b91508190509392505050565b600061288382856124fa565b915061288f828461283c565b6020820191508190509392505050565b60006020820190506128b4600083018461246a565b92915050565b60006080820190506128cf600083018761246a565b6128dc602083018661246a565b6128e9604083018561282d565b81810360608301526128fb8184612488565b905095945050505050565b600060208201905061291b6000830184612479565b92915050565b6000602082019050818103600083015261293b81846124c1565b905092915050565b6000602082019050818103600083015261295c8161252b565b9050919050565b6000602082019050818103600083015261297c8161254e565b9050919050565b6000602082019050818103600083015261299c81612571565b9050919050565b600060208201905081810360008301526129bc81612594565b9050919050565b600060208201905081810360008301526129dc816125b7565b9050919050565b600060208201905081810360008301526129fc816125da565b9050919050565b60006020820190508181036000830152612a1c816125fd565b9050919050565b60006020820190508181036000830152612a3c81612620565b9050919050565b60006020820190508181036000830152612a5c81612643565b9050919050565b60006020820190508181036000830152612a7c81612666565b9050919050565b60006020820190508181036000830152612a9c81612689565b9050919050565b60006020820190508181036000830152612abc816126ac565b9050919050565b60006020820190508181036000830152612adc816126cf565b9050919050565b60006020820190508181036000830152612afc816126f2565b9050919050565b60006020820190508181036000830152612b1c81612715565b9050919050565b60006020820190508181036000830152612b3c81612738565b9050919050565b60006020820190508181036000830152612b5c8161275b565b9050919050565b60006020820190508181036000830152612b7c8161277e565b9050919050565b60006020820190508181036000830152612b9c816127a1565b9050919050565b60006020820190508181036000830152612bbc816127c4565b9050919050565b60006020820190508181036000830152612bdc816127e7565b9050919050565b60006020820190508181036000830152612bfc8161280a565b9050919050565b6000602082019050612c18600083018461282d565b92915050565b6000612c28612c39565b9050612c348282612ee5565b919050565b6000604051905090565b600067ffffffffffffffff821115612c5e57612c5d613027565b5b612c6782613056565b9050602081019050919050565b600067ffffffffffffffff821115612c8f57612c8e613027565b5b612c9882613056565b9050602081019050919050565b600081519050919050565b600081519050919050565b600082825260208201905092915050565b600082825260208201905092915050565b600081905092915050565b6000612cf382612e67565b9150612cfe83612e67565b9250827fffffffffffffffffffffffffffffffffffffffffffffffffffffffffffffffff03821115612d3357612d32612f9a565b5b828201905092915050565b6000612d4982612e67565b9150612d5483612e67565b925082612d6457612d63612fc9565b5b828204905092915050565b6000612d7a82612e67565b9150612d8583612e67565b9250817fffffffffffffffffffffffffffffffffffffffffffffffffffffffffffffffff0483118215151615612dbe57612dbd612f9a565b5b828202905092915050565b6000612dd482612e67565b9150612ddf83612e67565b925082821015612df257612df1612f9a565b5b828203905092915050565b6000612e0882612e47565b9050919050565b60008115159050919050565b60007fffffffff0000000000000000000000000000000000000000000000000000000082169050919050565b600073ffffffffffffffffffffffffffffffffffffffff82169050919050565b6000819050919050565b82818337600083830152505050565b60005b83811015612e9e578082015181840152602081019050612e83565b83811115612ead576000848401525b50505050565b60006002820490506001821680612ecb57607f821691505b60208210811415612edf57612ede612ff8565b5b50919050565b612eee82613056565b810181811067ffffffffffffffff82111715612f0d57612f0c613027565b5b80604052505050565b6000612f2182612e67565b91507fffffffffffffffffffffffffffffffffffffffffffffffffffffffffffffffff821415612f5457612f53612f9a565b5b600182019050919050565b6000819050919050565b6000612f7482612e67565b9150612f7f83612e67565b925082612f8f57612f8e612fc9565b5b828206905092915050565b7f4e487b7100000000000000000000000000000000000000000000000000000000600052601160045260246000fd5b7f4e487b7100000000000000000000000000000000000000000000000000000000600052601260045260246000fd5b7f4e487b7100000000000000000000000000000000000000000000000000000000600052602260045260246000fd5b7f4e487b7100000000000000000000000000000000000000000000000000000000600052604160045260246000fd5b6000601f19601f8301169050919050565b7f5061757361626c653a206e6f7420706175736564000000000000000000000000600082015250565b7f4552433732313a207472616e7366657220746f206e6f6e20455243373231526560008201527f63656976657220696d706c656d656e7465720000000000000000000000000000602082015250565b7f4f776e61626c653a206e6577206f776e657220697320746865207a65726f206160008201527f6464726573730000000000000000000000000000000000000000000000000000602082015250565b7f4552433732313a20746f6b656e20616c7265616479206d696e74656400000000600082015250565b7f4552433732313a207472616e7366657220746f20746865207a65726f2061646460008201527f7265737300000000000000000000000000000000000000000000000000000000602082015250565b7f4552433732313a20617070726f766520746f2063616c6c657200000000000000600082015250565b7f4552433732313a206f70657261746f7220717565727920666f72206e6f6e657860008201527f697374656e7420746f6b656e0000000000000000000000000000000000000000602082015250565b7f4d696e696d756d206e756d626572206f66206d696e7461626c6520746f6b656e60008201527f2069732031000000000000000000000000000000000000000000000000000000602082015250565b7f5061757361626c653a2070617573656400000000000000000000000000000000600082015250565b7f4552433732313a20617070726f76652063616c6c6572206973206e6f74206f7760008201527f6e6572206e6f7220617070726f76656420666f7220616c6c0000000000000000602082015250565b7f4552433732313a2062616c616e636520717565727920666f7220746865207a6560008201527f726f206164647265737300000000000000000000000000000000000000000000602082015250565b7f4552433732313a206f776e657220717565727920666f72206e6f6e657869737460008201527f656e7420746f6b656e0000000000000000000000000000000000000000000000602082015250565b7f45524337323155524953746f726167653a2055524920736574206f66206e6f6e60008201527f6578697374656e7420746f6b656e000000000000000000000000000000000000602082015250565b7f4552433732313a206d696e7420746f20746865207a65726f2061646472657373600082015250565b7f45524337323155524953746f726167653a2055524920717565727920666f722060008201527f6e6f6e6578697374656e7420746f6b656e000000000000000000000000000000602082015250565b7f4552433732313a20617070726f76656420717565727920666f72206e6f6e657860008201527f697374656e7420746f6b656e0000000000000000000000000000000000000000602082015250565b7f4f776e61626c653a2063616c6c6572206973206e6f7420746865206f776e6572600082015250565b7f4552433732313a207472616e73666572206f6620746f6b656e2074686174206960008201527f73206e6f74206f776e0000000000000000000000000000000000000000000000602082015250565b7f4552433732314d657461646174613a2055524920717565727920666f72206e6f60008201527f6e6578697374656e7420746f6b656e0000000000000000000000000000000000602082015250565b7f4552433732313a20617070726f76616c20746f2063757272656e74206f776e6560008201527f7200000000000000000000000000000000000000000000000000000000000000602082015250565b7f4552433732313a207472616e736665722063616c6c6572206973206e6f74206f60008201527f776e6572206e6f7220617070726f766564000000000000000000000000000000602082015250565b7f506c656173652073656e6420616c6f6e6720302e30303035206574686572207460008201527f6f20636f6d706c657465206d696e74696e670000000000000000000000000000602082015250565b61365681612dfd565b811461366157600080fd5b50565b61366d81612e0f565b811461367857600080fd5b50565b61368481612e1b565b811461368f57600080fd5b50565b61369b81612e67565b81146136a657600080fd5b5056fea2646970667358221220792f048da268978e15066e0e1d68a2a7d6a6161300009c16d6bc7f9c040ed38564736f6c63430008040033",
  "linkReferences": {},
  "deployedLinkReferences": {}
}