{
  "_format": "hh-sol-artifact-1",
  "contractName": "Zebra",
  "sourceName": "contracts/Zebra.sol",
  "abi": [
    {
      "inputs": [],
      "stateMutability": "nonpayable",
      "type": "constructor"
    },
    {
      "anonymous": false,
      "inputs": [
        {
          "indexed": true,
          "internalType": "address",
          "name": "owner",
          "type": "address"
        },
        {
          "indexed": true,
          "internalType": "address",
          "name": "approved",
          "type": "address"
        },
        {
          "indexed": true,
          "internalType": "uint256",
          "name": "tokenId",
          "type": "uint256"
        }
      ],
      "name": "Approval",
      "type": "event"
    },
    {
      "anonymous": false,
      "inputs": [
        {
          "indexed": true,
          "internalType": "address",
          "name": "owner",
          "type": "address"
        },
        {
          "indexed": true,
          "internalType": "address",
          "name": "operator",
          "type": "address"
        },
        {
          "indexed": false,
          "internalType": "bool",
          "name": "approved",
          "type": "bool"
        }
      ],
      "name": "ApprovalForAll",
      "type": "event"
    },
    {
      "anonymous": false,
      "inputs": [
        {
          "indexed": true,
          "internalType": "address",
          "name": "previousOwner",
          "type": "address"
        },
        {
          "indexed": true,
          "internalType": "address",
          "name": "newOwner",
          "type": "address"
        }
      ],
      "name": "OwnershipTransferred",
      "type": "event"
    },
    {
      "anonymous": false,
      "inputs": [
        {
          "indexed": false,
          "internalType": "address",
          "name": "account",
          "type": "address"
        }
      ],
      "name": "Paused",
      "type": "event"
    },
    {
      "anonymous": false,
      "inputs": [
        {
          "indexed": true,
          "internalType": "address",
          "name": "from",
          "type": "address"
        },
        {
          "indexed": true,
          "internalType": "address",
          "name": "to",
          "type": "address"
        },
        {
          "indexed": true,
          "internalType": "uint256",
          "name": "tokenId",
          "type": "uint256"
        }
      ],
      "name": "Transfer",
      "type": "event"
    },
    {
      "anonymous": false,
      "inputs": [
        {
          "indexed": false,
          "internalType": "address",
          "name": "account",
          "type": "address"
        }
      ],
      "name": "Unpaused",
      "type": "event"
    },
    {
      "inputs": [
        {
          "internalType": "address",
          "name": "to",
          "type": "address"
        },
        {
          "internalType": "uint256",
          "name": "tokenId",
          "type": "uint256"
        }
      ],
      "name": "approve",
      "outputs": [],
      "stateMutability": "nonpayable",
      "type": "function"
    },
    {
      "inputs": [
        {
          "internalType": "address",
          "name": "owner",
          "type": "address"
        }
      ],
      "name": "balanceOf",
      "outputs": [
        {
          "internalType": "uint256",
          "name": "",
          "type": "uint256"
        }
      ],
      "stateMutability": "view",
      "type": "function"
    },
    {
      "inputs": [
        {
          "internalType": "string",
          "name": "tokenURI",
          "type": "string"
        },
        {
          "internalType": "uint256",
          "name": "_mintAmount",
          "type": "uint256"
        }
      ],
      "name": "createToken",
      "outputs": [],
      "stateMutability": "payable",
      "type": "function"
    },
    {
      "inputs": [
        {
          "internalType": "uint256",
          "name": "tokenId",
          "type": "uint256"
        }
      ],
      "name": "getApproved",
      "outputs": [
        {
          "internalType": "address",
          "name": "",
          "type": "address"
        }
      ],
      "stateMutability": "view",
      "type": "function"
    },
    {
      "inputs": [
        {
          "internalType": "uint256",
          "name": "_mintAmount",
          "type": "uint256"
        }
      ],
      "name": "getMintingPrice",
      "outputs": [
        {
          "internalType": "uint256",
          "name": "",
          "type": "uint256"
        }
      ],
      "stateMutability": "view",
      "type": "function"
    },
    {
      "inputs": [
        {
          "internalType": "address",
          "name": "owner",
          "type": "address"
        },
        {
          "internalType": "address",
          "name": "operator",
          "type": "address"
        }
      ],
      "name": "isApprovedForAll",
      "outputs": [
        {
          "internalType": "bool",
          "name": "",
          "type": "bool"
        }
      ],
      "stateMutability": "view",
      "type": "function"
    },
    {
      "inputs": [],
      "name": "name",
      "outputs": [
        {
          "internalType": "string",
          "name": "",
          "type": "string"
        }
      ],
      "stateMutability": "view",
      "type": "function"
    },
    {
      "inputs": [],
      "name": "owner",
      "outputs": [
        {
          "internalType": "address",
          "name": "",
          "type": "address"
        }
      ],
      "stateMutability": "view",
      "type": "function"
    },
    {
      "inputs": [
        {
          "internalType": "uint256",
          "name": "tokenId",
          "type": "uint256"
        }
      ],
      "name": "ownerOf",
      "outputs": [
        {
          "internalType": "address",
          "name": "",
          "type": "address"
        }
      ],
      "stateMutability": "view",
      "type": "function"
    },
    {
      "inputs": [],
      "name": "pause",
      "outputs": [],
      "stateMutability": "nonpayable",
      "type": "function"
    },
    {
      "inputs": [],
      "name": "paused",
      "outputs": [
        {
          "internalType": "bool",
          "name": "",
          "type": "bool"
        }
      ],
      "stateMutability": "view",
      "type": "function"
    },
    {
      "inputs": [],
      "name": "renounceOwnership",
      "outputs": [],
      "stateMutability": "nonpayable",
      "type": "function"
    },
    {
      "inputs": [
        {
          "internalType": "address",
          "name": "from",
          "type": "address"
        },
        {
          "internalType": "address",
          "name": "to",
          "type": "address"
        },
        {
          "internalType": "uint256",
          "name": "tokenId",
          "type": "uint256"
        }
      ],
      "name": "safeTransferFrom",
      "outputs": [],
      "stateMutability": "nonpayable",
      "type": "function"
    },
    {
      "inputs": [
        {
          "internalType": "address",
          "name": "from",
          "type": "address"
        },
        {
          "internalType": "address",
          "name": "to",
          "type": "address"
        },
        {
          "internalType": "uint256",
          "name": "tokenId",
          "type": "uint256"
        },
        {
          "internalType": "bytes",
          "name": "_data",
          "type": "bytes"
        }
      ],
      "name": "safeTransferFrom",
      "outputs": [],
      "stateMutability": "nonpayable",
      "type": "function"
    },
    {
      "inputs": [
        {
          "internalType": "address",
          "name": "operator",
          "type": "address"
        },
        {
          "internalType": "bool",
          "name": "approved",
          "type": "bool"
        }
      ],
      "name": "setApprovalForAll",
      "outputs": [],
      "stateMutability": "nonpayable",
      "type": "function"
    },
    {
      "inputs": [
        {
          "internalType": "bytes4",
          "name": "interfaceId",
          "type": "bytes4"
        }
      ],
      "name": "supportsInterface",
      "outputs": [
        {
          "internalType": "bool",
          "name": "",
          "type": "bool"
        }
      ],
      "stateMutability": "view",
      "type": "function"
    },
    {
      "inputs": [],
      "name": "symbol",
      "outputs": [
        {
          "internalType": "string",
          "name": "",
          "type": "string"
        }
      ],
      "stateMutability": "view",
      "type": "function"
    },
    {
      "inputs": [
        {
          "internalType": "uint256",
          "name": "tokenId",
          "type": "uint256"
        }
      ],
      "name": "tokenURI",
      "outputs": [
        {
          "internalType": "string",
          "name": "",
          "type": "string"
        }
      ],
      "stateMutability": "view",
      "type": "function"
    },
    {
      "inputs": [
        {
          "internalType": "address",
          "name": "from",
          "type": "address"
        },
        {
          "internalType": "address",
          "name": "to",
          "type": "address"
        },
        {
          "internalType": "uint256",
          "name": "tokenId",
          "type": "uint256"
        }
      ],
      "name": "transferFrom",
      "outputs": [],
      "stateMutability": "nonpayable",
      "type": "function"
    },
    {
      "inputs": [
        {
          "internalType": "address",
          "name": "newOwner",
          "type": "address"
        }
      ],
      "name": "transferOwnership",
      "outputs": [],
      "stateMutability": "nonpayable",
      "type": "function"
    },
    {
      "inputs": [],
      "name": "unpause",
      "outputs": [],
      "stateMutability": "nonpayable",
      "type": "function"
    }
  ],
  "bytecode": "0x60806040526601c6bf526340006009553480156200001c57600080fd5b506040518060400160405280600581526020017f5a656272610000000000000000000000000000000000000000000000000000008152506040518060400160405280600381526020017f5a425200000000000000000000000000000000000000000000000000000000008152508160009080519060200190620000a1929190620001cc565b508060019080519060200190620000ba929190620001cc565b5050506000600760006101000a81548160ff021916908315150217905550620000f8620000ec620000fe60201b60201c565b6200010660201b60201c565b620002e1565b600033905090565b6000600760019054906101000a900473ffffffffffffffffffffffffffffffffffffffff16905081600760016101000a81548173ffffffffffffffffffffffffffffffffffffffff021916908373ffffffffffffffffffffffffffffffffffffffff1602179055508173ffffffffffffffffffffffffffffffffffffffff168173ffffffffffffffffffffffffffffffffffffffff167f8be0079c531659141344cd1fd0a4f28419497f9722a3daafe3b4186f6b6457e060405160405180910390a35050565b828054620001da906200027c565b90600052602060002090601f016020900481019282620001fe57600085556200024a565b82601f106200021957805160ff19168380011785556200024a565b828001600101855582156200024a579182015b82811115620002495782518255916020019190600101906200022c565b5b5090506200025991906200025d565b5090565b5b80821115620002785760008160009055506001016200025e565b5090565b600060028204905060018216806200029557607f821691505b60208210811415620002ac57620002ab620002b2565b5b50919050565b7f4e487b7100000000000000000000000000000000000000000000000000000000600052602260045260246000fd5b6136f080620002f16000396000f3fe60806040526004361061012a5760003560e01c8063715018a6116100ab578063a22cb4651161006f578063a22cb465146103ab578063b88d4fde146103d4578063c87b56dd146103fd578063e985e9c51461043a578063eb1635ed14610477578063f2fde38b146104b45761012a565b8063715018a61461030b57806372b3b620146103225780638456cb591461033e5780638da5cb5b1461035557806395d89b41146103805761012a565b80633f4ba83a116100f25780633f4ba83a1461022657806342842e0e1461023d5780635c975abb146102665780636352211e1461029157806370a08231146102ce5761012a565b806301ffc9a71461012f57806306fdde031461016c578063081812fc14610197578063095ea7b3146101d457806323b872dd146101fd575b600080fd5b34801561013b57600080fd5b50610156600480360381019061015191906123ac565b6104dd565b6040516101639190612917565b60405180910390f35b34801561017857600080fd5b506101816105bf565b60405161018e9190612932565b60405180910390f35b3480156101a357600080fd5b506101be60048036038101906101b99190612452565b610651565b6040516101cb91906128b0565b60405180910390f35b3480156101e057600080fd5b506101fb60048036038101906101f69190612370565b6106d6565b005b34801561020957600080fd5b50610224600480360381019061021f919061226a565b6107ee565b005b34801561023257600080fd5b5061023b61084e565b005b34801561024957600080fd5b50610264600480360381019061025f919061226a565b6108d4565b005b34801561027257600080fd5b5061027b6108f4565b6040516102889190612917565b60405180910390f35b34801561029d57600080fd5b506102b860048036038101906102b39190612452565b61090b565b6040516102c591906128b0565b60405180910390f35b3480156102da57600080fd5b506102f560048036038101906102f09190612205565b6109bd565b6040516103029190612c14565b60405180910390f35b34801561031757600080fd5b50610320610a75565b005b61033c600480360381019061033791906123fe565b610afd565b005b34801561034a57600080fd5b50610353610c57565b005b34801561036157600080fd5b5061036a610cdd565b60405161037791906128b0565b60405180910390f35b34801561038c57600080fd5b50610395610d07565b6040516103a29190612932565b60405180910390f35b3480156103b757600080fd5b506103d260048036038101906103cd9190612334565b610d99565b005b3480156103e057600080fd5b506103fb60048036038101906103f691906122b9565b610f1a565b005b34801561040957600080fd5b50610424600480360381019061041f9190612452565b610f7c565b6040516104319190612932565b60405180910390f35b34801561044657600080fd5b50610461600480360381019061045c919061222e565b6110ce565b60405161046e9190612917565b60405180910390f35b34801561048357600080fd5b5061049e60048036038101906104999190612452565b611162565b6040516104ab9190612c14565b60405180910390f35b3480156104c057600080fd5b506104db60048036038101906104d69190612205565b611179565b005b60007f80ac58cd000000000000000000000000000000000000000000000000000000007bffffffffffffffffffffffffffffffffffffffffffffffffffffffff1916827bffffffffffffffffffffffffffffffffffffffffffffffffffffffff191614806105a857507f5b5e139f000000000000000000000000000000000000000000000000000000007bffffffffffffffffffffffffffffffffffffffffffffffffffffffff1916827bffffffffffffffffffffffffffffffffffffffffffffffffffffffff1916145b806105b857506105b782611271565b5b9050919050565b6060600080546105ce90612ec4565b80601f01602080910402602001604051908101604052809291908181526020018280546105fa90612ec4565b80156106475780601f1061061c57610100808354040283529160200191610647565b820191906000526020600020905b81548152906001019060200180831161062a57829003601f168201915b5050505050905090565b600061065c826112db565b61069b576040517f08c379a000000000000000000000000000000000000000000000000000000000815260040161069290612b54565b60405180910390fd5b6004600083815260200190815260200160002060009054906101000a900473ffffffffffffffffffffffffffffffffffffffff169050919050565b60006106e18261090b565b90508073ffffffffffffffffffffffffffffffffffffffff168373ffffffffffffffffffffffffffffffffffffffff161415610752576040517f08c379a000000000000000000000000000000000000000000000000000000000815260040161074990612bd4565b60405180910390fd5b8073ffffffffffffffffffffffffffffffffffffffff16610771611347565b73ffffffffffffffffffffffffffffffffffffffff1614806107a0575061079f8161079a611347565b6110ce565b5b6107df576040517f08c379a00000000000000000000000000000000000000000000000000000000081526004016107d690612a94565b60405180910390fd5b6107e9838361134f565b505050565b6107ff6107f9611347565b82611408565b61083e576040517f08c379a000000000000000000000000000000000000000000000000000000000815260040161083590612bf4565b60405180910390fd5b6108498383836114e6565b505050565b610856611347565b73ffffffffffffffffffffffffffffffffffffffff16610874610cdd565b73ffffffffffffffffffffffffffffffffffffffff16146108ca576040517f08c379a00000000000000000000000000000000000000000000000000000000081526004016108c190612b74565b60405180910390fd5b6108d2611742565b565b6108ef83838360405180602001604052806000815250610f1a565b505050565b6000600760009054906101000a900460ff16905090565b6000806002600084815260200190815260200160002060009054906101000a900473ffffffffffffffffffffffffffffffffffffffff169050600073ffffffffffffffffffffffffffffffffffffffff168173ffffffffffffffffffffffffffffffffffffffff1614156109b4576040517f08c379a00000000000000000000000000000000000000000000000000000000081526004016109ab90612ad4565b60405180910390fd5b80915050919050565b60008073ffffffffffffffffffffffffffffffffffffffff168273ffffffffffffffffffffffffffffffffffffffff161415610a2e576040517f08c379a0000000000000000000000000000000000000000000000000000000008152600401610a2590612ab4565b60405180910390fd5b600360008373ffffffffffffffffffffffffffffffffffffffff1673ffffffffffffffffffffffffffffffffffffffff168152602001908152602001600020549050919050565b610a7d611347565b73ffffffffffffffffffffffffffffffffffffffff16610a9b610cdd565b73ffffffffffffffffffffffffffffffffffffffff1614610af1576040517f08c379a0000000000000000000000000000000000000000000000000000000008152600401610ae890612b74565b60405180910390fd5b610afb60006117e4565b565b610b056108f4565b15610b45576040517f08c379a0000000000000000000000000000000000000000000000000000000008152600401610b3c90612a74565b60405180910390fd5b60008111610b88576040517f08c379a0000000000000000000000000000000000000000000000000000000008152600401610b7f90612a54565b60405180910390fd5b600081600954610b989190612d80565b9050803414610bdc576040517f08c379a0000000000000000000000000000000000000000000000000000000008152600401610bd3906129b4565b60405180910390fd5b6000600190505b828111610c51576000610bf660086118aa565b9050610c0233826118b8565b60008583604051602001610c17929190612888565b6040516020818303038152906040529050610c328282611a86565b610c3c6008611afa565b50508080610c4990612f27565b915050610be3565b50505050565b610c5f611347565b73ffffffffffffffffffffffffffffffffffffffff16610c7d610cdd565b73ffffffffffffffffffffffffffffffffffffffff1614610cd3576040517f08c379a0000000000000000000000000000000000000000000000000000000008152600401610cca90612b74565b60405180910390fd5b610cdb611b10565b565b6000600760019054906101000a900473ffffffffffffffffffffffffffffffffffffffff16905090565b606060018054610d1690612ec4565b80601f0160208091040260200160405190810160405280929190818152602001828054610d4290612ec4565b8015610d8f5780601f10610d6457610100808354040283529160200191610d8f565b820191906000526020600020905b815481529060010190602001808311610d7257829003601f168201915b5050505050905090565b610da1611347565b73ffffffffffffffffffffffffffffffffffffffff168273ffffffffffffffffffffffffffffffffffffffff161415610e0f576040517f08c379a0000000000000000000000000000000000000000000000000000000008152600401610e0690612a14565b60405180910390fd5b8060056000610e1c611347565b73ffffffffffffffffffffffffffffffffffffffff1673ffffffffffffffffffffffffffffffffffffffff16815260200190815260200160002060008473ffffffffffffffffffffffffffffffffffffffff1673ffffffffffffffffffffffffffffffffffffffff16815260200190815260200160002060006101000a81548160ff0219169083151502179055508173ffffffffffffffffffffffffffffffffffffffff16610ec9611347565b73ffffffffffffffffffffffffffffffffffffffff167f17307eab39ab6107e8899845ad3d59bd9653f200f220920489ca2b5937696c3183604051610f0e9190612917565b60405180910390a35050565b610f2b610f25611347565b83611408565b610f6a576040517f08c379a0000000000000000000000000000000000000000000000000000000008152600401610f6190612bf4565b60405180910390fd5b610f7684848484611bb3565b50505050565b6060610f87826112db565b610fc6576040517f08c379a0000000000000000000000000000000000000000000000000000000008152600401610fbd90612b34565b60405180910390fd5b6000600660008481526020019081526020016000208054610fe690612ec4565b80601f016020809104026020016040519081016040528092919081815260200182805461101290612ec4565b801561105f5780601f106110345761010080835404028352916020019161105f565b820191906000526020600020905b81548152906001019060200180831161104257829003601f168201915b505050505090506000611070611c0f565b90506000815114156110865781925050506110c9565b6000825111156110bb5780826040516020016110a3929190612864565b604051602081830303815290604052925050506110c9565b6110c484611c26565b925050505b919050565b6000600560008473ffffffffffffffffffffffffffffffffffffffff1673ffffffffffffffffffffffffffffffffffffffff16815260200190815260200160002060008373ffffffffffffffffffffffffffffffffffffffff1673ffffffffffffffffffffffffffffffffffffffff16815260200190815260200160002060009054906101000a900460ff16905092915050565b6000600954826111729190612d80565b9050919050565b611181611347565b73ffffffffffffffffffffffffffffffffffffffff1661119f610cdd565b73ffffffffffffffffffffffffffffffffffffffff16146111f5576040517f08c379a00000000000000000000000000000000000000000000000000000000081526004016111ec90612b74565b60405180910390fd5b600073ffffffffffffffffffffffffffffffffffffffff168173ffffffffffffffffffffffffffffffffffffffff161415611265576040517f08c379a000000000000000000000000000000000000000000000000000000000815260040161125c90612994565b60405180910390fd5b61126e816117e4565b50565b60007f01ffc9a7000000000000000000000000000000000000000000000000000000007bffffffffffffffffffffffffffffffffffffffffffffffffffffffff1916827bffffffffffffffffffffffffffffffffffffffffffffffffffffffff1916149050919050565b60008073ffffffffffffffffffffffffffffffffffffffff166002600084815260200190815260200160002060009054906101000a900473ffffffffffffffffffffffffffffffffffffffff1673ffffffffffffffffffffffffffffffffffffffff1614159050919050565b600033905090565b816004600083815260200190815260200160002060006101000a81548173ffffffffffffffffffffffffffffffffffffffff021916908373ffffffffffffffffffffffffffffffffffffffff160217905550808273ffffffffffffffffffffffffffffffffffffffff166113c28361090b565b73ffffffffffffffffffffffffffffffffffffffff167f8c5be1e5ebec7d5bd14f71427d1e84f3dd0314c0f7b2291e5b200ac8c7c3b92560405160405180910390a45050565b6000611413826112db565b611452576040517f08c379a000000000000000000000000000000000000000000000000000000000815260040161144990612a34565b60405180910390fd5b600061145d8361090b565b90508073ffffffffffffffffffffffffffffffffffffffff168473ffffffffffffffffffffffffffffffffffffffff1614806114cc57508373ffffffffffffffffffffffffffffffffffffffff166114b484610651565b73ffffffffffffffffffffffffffffffffffffffff16145b806114dd57506114dc81856110ce565b5b91505092915050565b8273ffffffffffffffffffffffffffffffffffffffff166115068261090b565b73ffffffffffffffffffffffffffffffffffffffff161461155c576040517f08c379a000000000000000000000000000000000000000000000000000000000815260040161155390612b94565b60405180910390fd5b600073ffffffffffffffffffffffffffffffffffffffff168273ffffffffffffffffffffffffffffffffffffffff1614156115cc576040517f08c379a00000000000000000000000000000000000000000000000000000000081526004016115c3906129f4565b60405180910390fd5b6115d7838383611ccd565b6115e260008261134f565b6001600360008573ffffffffffffffffffffffffffffffffffffffff1673ffffffffffffffffffffffffffffffffffffffff16815260200190815260200160002060008282546116329190612dda565b925050819055506001600360008473ffffffffffffffffffffffffffffffffffffffff1673ffffffffffffffffffffffffffffffffffffffff16815260200190815260200160002060008282546116899190612cf9565b92505081905550816002600083815260200190815260200160002060006101000a81548173ffffffffffffffffffffffffffffffffffffffff021916908373ffffffffffffffffffffffffffffffffffffffff160217905550808273ffffffffffffffffffffffffffffffffffffffff168473ffffffffffffffffffffffffffffffffffffffff167fddf252ad1be2c89b69c2b068fc378daa952ba7f163c4a11628f55a4df523b3ef60405160405180910390a4505050565b61174a6108f4565b611789576040517f08c379a000000000000000000000000000000000000000000000000000000000815260040161178090612954565b60405180910390fd5b6000600760006101000a81548160ff0219169083151502179055507f5db9ee0a495bf2e6ff9c91a7834c1ba4fdd244a5e8aa4e537bd38aeae4b073aa6117cd611347565b6040516117da91906128b0565b60405180910390a1565b6000600760019054906101000a900473ffffffffffffffffffffffffffffffffffffffff16905081600760016101000a81548173ffffffffffffffffffffffffffffffffffffffff021916908373ffffffffffffffffffffffffffffffffffffffff1602179055508173ffffffffffffffffffffffffffffffffffffffff168173ffffffffffffffffffffffffffffffffffffffff167f8be0079c531659141344cd1fd0a4f28419497f9722a3daafe3b4186f6b6457e060405160405180910390a35050565b600081600001549050919050565b600073ffffffffffffffffffffffffffffffffffffffff168273ffffffffffffffffffffffffffffffffffffffff161415611928576040517f08c379a000000000000000000000000000000000000000000000000000000000815260040161191f90612b14565b60405180910390fd5b611931816112db565b15611971576040517f08c379a0000000000000000000000000000000000000000000000000000000008152600401611968906129d4565b60405180910390fd5b61197d60008383611ccd565b6001600360008473ffffffffffffffffffffffffffffffffffffffff1673ffffffffffffffffffffffffffffffffffffffff16815260200190815260200160002060008282546119cd9190612cf9565b92505081905550816002600083815260200190815260200160002060006101000a81548173ffffffffffffffffffffffffffffffffffffffff021916908373ffffffffffffffffffffffffffffffffffffffff160217905550808273ffffffffffffffffffffffffffffffffffffffff16600073ffffffffffffffffffffffffffffffffffffffff167fddf252ad1be2c89b69c2b068fc378daa952ba7f163c4a11628f55a4df523b3ef60405160405180910390a45050565b611a8f826112db565b611ace576040517f08c379a0000000000000000000000000000000000000000000000000000000008152600401611ac590612af4565b60405180910390fd5b80600660008481526020019081526020016000209080519060200190611af5929190612029565b505050565b6001816000016000828254019250508190555050565b611b186108f4565b15611b58576040517f08c379a0000000000000000000000000000000000000000000000000000000008152600401611b4f90612a74565b60405180910390fd5b6001600760006101000a81548160ff0219169083151502179055507f62e78cea01bee320cd4e420270b5ea74000d11b0c9f74754ebdbfc544b05a258611b9c611347565b604051611ba991906128b0565b60405180910390a1565b611bbe8484846114e6565b611bca84848484611cd2565b611c09576040517f08c379a0000000000000000000000000000000000000000000000000000000008152600401611c0090612974565b60405180910390fd5b50505050565b606060405180602001604052806000815250905090565b6060611c31826112db565b611c70576040517f08c379a0000000000000000000000000000000000000000000000000000000008152600401611c6790612bb4565b60405180910390fd5b6000611c7a611c0f565b90506000815111611c9a5760405180602001604052806000815250611cc5565b80611ca484611e69565b604051602001611cb5929190612864565b6040516020818303038152906040525b915050919050565b505050565b6000611cf38473ffffffffffffffffffffffffffffffffffffffff16612016565b15611e5c578373ffffffffffffffffffffffffffffffffffffffff1663150b7a02611d1c611347565b8786866040518563ffffffff1660e01b8152600401611d3e94939291906128cb565b602060405180830381600087803b158015611d5857600080fd5b505af1925050508015611d8957506040513d601f19601f82011682018060405250810190611d8691906123d5565b60015b611e0c573d8060008114611db9576040519150601f19603f3d011682016040523d82523d6000602084013e611dbe565b606091505b50600081511415611e04576040517f08c379a0000000000000000000000000000000000000000000000000000000008152600401611dfb90612974565b60405180910390fd5b805181602001fd5b63150b7a0260e01b7bffffffffffffffffffffffffffffffffffffffffffffffffffffffff1916817bffffffffffffffffffffffffffffffffffffffffffffffffffffffff191614915050611e61565b600190505b949350505050565b60606000821415611eb1576040518060400160405280600181526020017f30000000000000000000000000000000000000000000000000000000000000008152509050612011565b600082905060005b60008214611ee3578080611ecc90612f27565b915050600a82611edc9190612d4f565b9150611eb9565b60008167ffffffffffffffff811115611f25577f4e487b7100000000000000000000000000000000000000000000000000000000600052604160045260246000fd5b6040519080825280601f01601f191660200182016040528015611f575781602001600182028036833780820191505090505b5090505b6000851461200a57600182611f709190612dda565b9150600a85611f7f9190612f7a565b6030611f8b9190612cf9565b60f81b818381518110611fc7577f4e487b7100000000000000000000000000000000000000000000000000000000600052603260045260246000fd5b60200101907effffffffffffffffffffffffffffffffffffffffffffffffffffffffffffff1916908160001a905350600a856120039190612d4f565b9450611f5b565b8093505050505b919050565b600080823b905060008111915050919050565b82805461203590612ec4565b90600052602060002090601f016020900481019282612057576000855561209e565b82601f1061207057805160ff191683800117855561209e565b8280016001018555821561209e579182015b8281111561209d578251825591602001919060010190612082565b5b5090506120ab91906120af565b5090565b5b808211156120c85760008160009055506001016120b0565b5090565b60006120df6120da84612c54565b612c2f565b9050828152602081018484840111156120f757600080fd5b612102848285612e82565b509392505050565b600061211d61211884612c85565b612c2f565b90508281526020810184848401111561213557600080fd5b612140848285612e82565b509392505050565b6000813590506121578161365e565b92915050565b60008135905061216c81613675565b92915050565b6000813590506121818161368c565b92915050565b6000815190506121968161368c565b92915050565b600082601f8301126121ad57600080fd5b81356121bd8482602086016120cc565b91505092915050565b600082601f8301126121d757600080fd5b81356121e784826020860161210a565b91505092915050565b6000813590506121ff816136a3565b92915050565b60006020828403121561221757600080fd5b600061222584828501612148565b91505092915050565b6000806040838503121561224157600080fd5b600061224f85828601612148565b925050602061226085828601612148565b9150509250929050565b60008060006060848603121561227f57600080fd5b600061228d86828701612148565b935050602061229e86828701612148565b92505060406122af868287016121f0565b9150509250925092565b600080600080608085870312156122cf57600080fd5b60006122dd87828801612148565b94505060206122ee87828801612148565b93505060406122ff878288016121f0565b925050606085013567ffffffffffffffff81111561231c57600080fd5b6123288782880161219c565b91505092959194509250565b6000806040838503121561234757600080fd5b600061235585828601612148565b92505060206123668582860161215d565b9150509250929050565b6000806040838503121561238357600080fd5b600061239185828601612148565b92505060206123a2858286016121f0565b9150509250929050565b6000602082840312156123be57600080fd5b60006123cc84828501612172565b91505092915050565b6000602082840312156123e757600080fd5b60006123f584828501612187565b91505092915050565b6000806040838503121561241157600080fd5b600083013567ffffffffffffffff81111561242b57600080fd5b612437858286016121c6565b9250506020612448858286016121f0565b9150509250929050565b60006020828403121561246457600080fd5b6000612472848285016121f0565b91505092915050565b61248481612e0e565b82525050565b61249381612e20565b82525050565b60006124a482612cb6565b6124ae8185612ccc565b93506124be818560208601612e91565b6124c781613067565b840191505092915050565b60006124dd82612cc1565b6124e78185612cdd565b93506124f7818560208601612e91565b61250081613067565b840191505092915050565b600061251682612cc1565b6125208185612cee565b9350612530818560208601612e91565b80840191505092915050565b6000612549601483612cdd565b915061255482613078565b602082019050919050565b600061256c603283612cdd565b9150612577826130a1565b604082019050919050565b600061258f602683612cdd565b915061259a826130f0565b604082019050919050565b60006125b2603f83612cdd565b91506125bd8261313f565b604082019050919050565b60006125d5601c83612cdd565b91506125e08261318e565b602082019050919050565b60006125f8602483612cdd565b9150612603826131b7565b604082019050919050565b600061261b601983612cdd565b915061262682613206565b602082019050919050565b600061263e602c83612cdd565b91506126498261322f565b604082019050919050565b6000612661602583612cdd565b915061266c8261327e565b604082019050919050565b6000612684601083612cdd565b915061268f826132cd565b602082019050919050565b60006126a7603883612cdd565b91506126b2826132f6565b604082019050919050565b60006126ca602a83612cdd565b91506126d582613345565b604082019050919050565b60006126ed602983612cdd565b91506126f882613394565b604082019050919050565b6000612710602e83612cdd565b915061271b826133e3565b604082019050919050565b6000612733602083612cdd565b915061273e82613432565b602082019050919050565b6000612756603183612cdd565b91506127618261345b565b604082019050919050565b6000612779602c83612cdd565b9150612784826134aa565b604082019050919050565b600061279c602083612cdd565b91506127a7826134f9565b602082019050919050565b60006127bf602983612cdd565b91506127ca82613522565b604082019050919050565b60006127e2602f83612cdd565b91506127ed82613571565b604082019050919050565b6000612805602183612cdd565b9150612810826135c0565b604082019050919050565b6000612828603183612cdd565b91506128338261360f565b604082019050919050565b61284781612e78565b82525050565b61285e61285982612e78565b612f70565b82525050565b6000612870828561250b565b915061287c828461250b565b91508190509392505050565b6000612894828561250b565b91506128a0828461284d565b6020820191508190509392505050565b60006020820190506128c5600083018461247b565b92915050565b60006080820190506128e0600083018761247b565b6128ed602083018661247b565b6128fa604083018561283e565b818103606083015261290c8184612499565b905095945050505050565b600060208201905061292c600083018461248a565b92915050565b6000602082019050818103600083015261294c81846124d2565b905092915050565b6000602082019050818103600083015261296d8161253c565b9050919050565b6000602082019050818103600083015261298d8161255f565b9050919050565b600060208201905081810360008301526129ad81612582565b9050919050565b600060208201905081810360008301526129cd816125a5565b9050919050565b600060208201905081810360008301526129ed816125c8565b9050919050565b60006020820190508181036000830152612a0d816125eb565b9050919050565b60006020820190508181036000830152612a2d8161260e565b9050919050565b60006020820190508181036000830152612a4d81612631565b9050919050565b60006020820190508181036000830152612a6d81612654565b9050919050565b60006020820190508181036000830152612a8d81612677565b9050919050565b60006020820190508181036000830152612aad8161269a565b9050919050565b60006020820190508181036000830152612acd816126bd565b9050919050565b60006020820190508181036000830152612aed816126e0565b9050919050565b60006020820190508181036000830152612b0d81612703565b9050919050565b60006020820190508181036000830152612b2d81612726565b9050919050565b60006020820190508181036000830152612b4d81612749565b9050919050565b60006020820190508181036000830152612b6d8161276c565b9050919050565b60006020820190508181036000830152612b8d8161278f565b9050919050565b60006020820190508181036000830152612bad816127b2565b9050919050565b60006020820190508181036000830152612bcd816127d5565b9050919050565b60006020820190508181036000830152612bed816127f8565b9050919050565b60006020820190508181036000830152612c0d8161281b565b9050919050565b6000602082019050612c29600083018461283e565b92915050565b6000612c39612c4a565b9050612c458282612ef6565b919050565b6000604051905090565b600067ffffffffffffffff821115612c6f57612c6e613038565b5b612c7882613067565b9050602081019050919050565b600067ffffffffffffffff821115612ca057612c9f613038565b5b612ca982613067565b9050602081019050919050565b600081519050919050565b600081519050919050565b600082825260208201905092915050565b600082825260208201905092915050565b600081905092915050565b6000612d0482612e78565b9150612d0f83612e78565b9250827fffffffffffffffffffffffffffffffffffffffffffffffffffffffffffffffff03821115612d4457612d43612fab565b5b828201905092915050565b6000612d5a82612e78565b9150612d6583612e78565b925082612d7557612d74612fda565b5b828204905092915050565b6000612d8b82612e78565b9150612d9683612e78565b9250817fffffffffffffffffffffffffffffffffffffffffffffffffffffffffffffffff0483118215151615612dcf57612dce612fab565b5b828202905092915050565b6000612de582612e78565b9150612df083612e78565b925082821015612e0357612e02612fab565b5b828203905092915050565b6000612e1982612e58565b9050919050565b60008115159050919050565b60007fffffffff0000000000000000000000000000000000000000000000000000000082169050919050565b600073ffffffffffffffffffffffffffffffffffffffff82169050919050565b6000819050919050565b82818337600083830152505050565b60005b83811015612eaf578082015181840152602081019050612e94565b83811115612ebe576000848401525b50505050565b60006002820490506001821680612edc57607f821691505b60208210811415612ef057612eef613009565b5b50919050565b612eff82613067565b810181811067ffffffffffffffff82111715612f1e57612f1d613038565b5b80604052505050565b6000612f3282612e78565b91507fffffffffffffffffffffffffffffffffffffffffffffffffffffffffffffffff821415612f6557612f64612fab565b5b600182019050919050565b6000819050919050565b6000612f8582612e78565b9150612f9083612e78565b925082612fa057612f9f612fda565b5b828206905092915050565b7f4e487b7100000000000000000000000000000000000000000000000000000000600052601160045260246000fd5b7f4e487b7100000000000000000000000000000000000000000000000000000000600052601260045260246000fd5b7f4e487b7100000000000000000000000000000000000000000000000000000000600052602260045260246000fd5b7f4e487b7100000000000000000000000000000000000000000000000000000000600052604160045260246000fd5b6000601f19601f8301169050919050565b7f5061757361626c653a206e6f7420706175736564000000000000000000000000600082015250565b7f4552433732313a207472616e7366657220746f206e6f6e20455243373231526560008201527f63656976657220696d706c656d656e7465720000000000000000000000000000602082015250565b7f4f776e61626c653a206e6577206f776e657220697320746865207a65726f206160008201527f6464726573730000000000000000000000000000000000000000000000000000602082015250565b7f506c656173652073656e6420616c6f6e6720302e30303035206574686572206660008201527f6f722065616368204e465420746f20636f6d706c657465206d696e74696e6700602082015250565b7f4552433732313a20746f6b656e20616c7265616479206d696e74656400000000600082015250565b7f4552433732313a207472616e7366657220746f20746865207a65726f2061646460008201527f7265737300000000000000000000000000000000000000000000000000000000602082015250565b7f4552433732313a20617070726f766520746f2063616c6c657200000000000000600082015250565b7f4552433732313a206f70657261746f7220717565727920666f72206e6f6e657860008201527f697374656e7420746f6b656e0000000000000000000000000000000000000000602082015250565b7f4d696e696d756d206e756d626572206f66206d696e7461626c6520746f6b656e60008201527f2069732031000000000000000000000000000000000000000000000000000000602082015250565b7f5061757361626c653a2070617573656400000000000000000000000000000000600082015250565b7f4552433732313a20617070726f76652063616c6c6572206973206e6f74206f7760008201527f6e6572206e6f7220617070726f76656420666f7220616c6c0000000000000000602082015250565b7f4552433732313a2062616c616e636520717565727920666f7220746865207a6560008201527f726f206164647265737300000000000000000000000000000000000000000000602082015250565b7f4552433732313a206f776e657220717565727920666f72206e6f6e657869737460008201527f656e7420746f6b656e0000000000000000000000000000000000000000000000602082015250565b7f45524337323155524953746f726167653a2055524920736574206f66206e6f6e60008201527f6578697374656e7420746f6b656e000000000000000000000000000000000000602082015250565b7f4552433732313a206d696e7420746f20746865207a65726f2061646472657373600082015250565b7f45524337323155524953746f726167653a2055524920717565727920666f722060008201527f6e6f6e6578697374656e7420746f6b656e000000000000000000000000000000602082015250565b7f4552433732313a20617070726f76656420717565727920666f72206e6f6e657860008201527f697374656e7420746f6b656e0000000000000000000000000000000000000000602082015250565b7f4f776e61626c653a2063616c6c6572206973206e6f7420746865206f776e6572600082015250565b7f4552433732313a207472616e73666572206f6620746f6b656e2074686174206960008201527f73206e6f74206f776e0000000000000000000000000000000000000000000000602082015250565b7f4552433732314d657461646174613a2055524920717565727920666f72206e6f60008201527f6e6578697374656e7420746f6b656e0000000000000000000000000000000000602082015250565b7f4552433732313a20617070726f76616c20746f2063757272656e74206f776e6560008201527f7200000000000000000000000000000000000000000000000000000000000000602082015250565b7f4552433732313a207472616e736665722063616c6c6572206973206e6f74206f60008201527f776e6572206e6f7220617070726f766564000000000000000000000000000000602082015250565b61366781612e0e565b811461367257600080fd5b50565b61367e81612e20565b811461368957600080fd5b50565b61369581612e2c565b81146136a057600080fd5b50565b6136ac81612e78565b81146136b757600080fd5b5056fea2646970667358221220ac4404a1fdb456713ae0064ebdf039b72df72e4ac5438ce368d123a35a07a09c64736f6c63430008040033",
  "linkReferences": {},
  "deployedLinkReferences": {}
}