{
  "_format": "hh-sol-artifact-1",
  "contractName": "Zebra",
  "sourceName": "contracts/Zebra.sol",
  "abi": [
    {
      "inputs": [],
      "stateMutability": "nonpayable",
      "type": "constructor"
    },
    {
      "anonymous": false,
      "inputs": [
        {
          "indexed": true,
          "internalType": "address",
          "name": "owner",
          "type": "address"
        },
        {
          "indexed": true,
          "internalType": "address",
          "name": "approved",
          "type": "address"
        },
        {
          "indexed": true,
          "internalType": "uint256",
          "name": "tokenId",
          "type": "uint256"
        }
      ],
      "name": "Approval",
      "type": "event"
    },
    {
      "anonymous": false,
      "inputs": [
        {
          "indexed": true,
          "internalType": "address",
          "name": "owner",
          "type": "address"
        },
        {
          "indexed": true,
          "internalType": "address",
          "name": "operator",
          "type": "address"
        },
        {
          "indexed": false,
          "internalType": "bool",
          "name": "approved",
          "type": "bool"
        }
      ],
      "name": "ApprovalForAll",
      "type": "event"
    },
    {
      "anonymous": false,
      "inputs": [
        {
          "indexed": true,
          "internalType": "address",
          "name": "previousOwner",
          "type": "address"
        },
        {
          "indexed": true,
          "internalType": "address",
          "name": "newOwner",
          "type": "address"
        }
      ],
      "name": "OwnershipTransferred",
      "type": "event"
    },
    {
      "anonymous": false,
      "inputs": [
        {
          "indexed": false,
          "internalType": "address",
          "name": "account",
          "type": "address"
        }
      ],
      "name": "Paused",
      "type": "event"
    },
    {
      "anonymous": false,
      "inputs": [
        {
          "indexed": true,
          "internalType": "address",
          "name": "from",
          "type": "address"
        },
        {
          "indexed": true,
          "internalType": "address",
          "name": "to",
          "type": "address"
        },
        {
          "indexed": true,
          "internalType": "uint256",
          "name": "tokenId",
          "type": "uint256"
        }
      ],
      "name": "Transfer",
      "type": "event"
    },
    {
      "anonymous": false,
      "inputs": [
        {
          "indexed": false,
          "internalType": "address",
          "name": "account",
          "type": "address"
        }
      ],
      "name": "Unpaused",
      "type": "event"
    },
    {
      "inputs": [
        {
          "internalType": "address",
          "name": "to",
          "type": "address"
        },
        {
          "internalType": "uint256",
          "name": "tokenId",
          "type": "uint256"
        }
      ],
      "name": "approve",
      "outputs": [],
      "stateMutability": "nonpayable",
      "type": "function"
    },
    {
      "inputs": [
        {
          "internalType": "address",
          "name": "owner",
          "type": "address"
        }
      ],
      "name": "balanceOf",
      "outputs": [
        {
          "internalType": "uint256",
          "name": "",
          "type": "uint256"
        }
      ],
      "stateMutability": "view",
      "type": "function"
    },
    {
      "inputs": [
        {
          "internalType": "string",
          "name": "tokenURI",
          "type": "string"
        },
        {
          "internalType": "uint256",
          "name": "_mintAmount",
          "type": "uint256"
        }
      ],
      "name": "createToken",
      "outputs": [],
      "stateMutability": "nonpayable",
      "type": "function"
    },
    {
      "inputs": [
        {
          "internalType": "uint256",
          "name": "tokenId",
          "type": "uint256"
        }
      ],
      "name": "getApproved",
      "outputs": [
        {
          "internalType": "address",
          "name": "",
          "type": "address"
        }
      ],
      "stateMutability": "view",
      "type": "function"
    },
    {
      "inputs": [
        {
          "internalType": "address",
          "name": "owner",
          "type": "address"
        },
        {
          "internalType": "address",
          "name": "operator",
          "type": "address"
        }
      ],
      "name": "isApprovedForAll",
      "outputs": [
        {
          "internalType": "bool",
          "name": "",
          "type": "bool"
        }
      ],
      "stateMutability": "view",
      "type": "function"
    },
    {
      "inputs": [],
      "name": "name",
      "outputs": [
        {
          "internalType": "string",
          "name": "",
          "type": "string"
        }
      ],
      "stateMutability": "view",
      "type": "function"
    },
    {
      "inputs": [],
      "name": "owner",
      "outputs": [
        {
          "internalType": "address",
          "name": "",
          "type": "address"
        }
      ],
      "stateMutability": "view",
      "type": "function"
    },
    {
      "inputs": [
        {
          "internalType": "uint256",
          "name": "tokenId",
          "type": "uint256"
        }
      ],
      "name": "ownerOf",
      "outputs": [
        {
          "internalType": "address",
          "name": "",
          "type": "address"
        }
      ],
      "stateMutability": "view",
      "type": "function"
    },
    {
      "inputs": [],
      "name": "pause",
      "outputs": [],
      "stateMutability": "nonpayable",
      "type": "function"
    },
    {
      "inputs": [],
      "name": "paused",
      "outputs": [
        {
          "internalType": "bool",
          "name": "",
          "type": "bool"
        }
      ],
      "stateMutability": "view",
      "type": "function"
    },
    {
      "inputs": [],
      "name": "renounceOwnership",
      "outputs": [],
      "stateMutability": "nonpayable",
      "type": "function"
    },
    {
      "inputs": [
        {
          "internalType": "address",
          "name": "from",
          "type": "address"
        },
        {
          "internalType": "address",
          "name": "to",
          "type": "address"
        },
        {
          "internalType": "uint256",
          "name": "tokenId",
          "type": "uint256"
        }
      ],
      "name": "safeTransferFrom",
      "outputs": [],
      "stateMutability": "nonpayable",
      "type": "function"
    },
    {
      "inputs": [
        {
          "internalType": "address",
          "name": "from",
          "type": "address"
        },
        {
          "internalType": "address",
          "name": "to",
          "type": "address"
        },
        {
          "internalType": "uint256",
          "name": "tokenId",
          "type": "uint256"
        },
        {
          "internalType": "bytes",
          "name": "_data",
          "type": "bytes"
        }
      ],
      "name": "safeTransferFrom",
      "outputs": [],
      "stateMutability": "nonpayable",
      "type": "function"
    },
    {
      "inputs": [
        {
          "internalType": "address",
          "name": "operator",
          "type": "address"
        },
        {
          "internalType": "bool",
          "name": "approved",
          "type": "bool"
        }
      ],
      "name": "setApprovalForAll",
      "outputs": [],
      "stateMutability": "nonpayable",
      "type": "function"
    },
    {
      "inputs": [
        {
          "internalType": "bytes4",
          "name": "interfaceId",
          "type": "bytes4"
        }
      ],
      "name": "supportsInterface",
      "outputs": [
        {
          "internalType": "bool",
          "name": "",
          "type": "bool"
        }
      ],
      "stateMutability": "view",
      "type": "function"
    },
    {
      "inputs": [],
      "name": "symbol",
      "outputs": [
        {
          "internalType": "string",
          "name": "",
          "type": "string"
        }
      ],
      "stateMutability": "view",
      "type": "function"
    },
    {
      "inputs": [
        {
          "internalType": "uint256",
          "name": "tokenId",
          "type": "uint256"
        }
      ],
      "name": "tokenURI",
      "outputs": [
        {
          "internalType": "string",
          "name": "",
          "type": "string"
        }
      ],
      "stateMutability": "view",
      "type": "function"
    },
    {
      "inputs": [
        {
          "internalType": "address",
          "name": "from",
          "type": "address"
        },
        {
          "internalType": "address",
          "name": "to",
          "type": "address"
        },
        {
          "internalType": "uint256",
          "name": "tokenId",
          "type": "uint256"
        }
      ],
      "name": "transferFrom",
      "outputs": [],
      "stateMutability": "nonpayable",
      "type": "function"
    },
    {
      "inputs": [
        {
          "internalType": "address",
          "name": "newOwner",
          "type": "address"
        }
      ],
      "name": "transferOwnership",
      "outputs": [],
      "stateMutability": "nonpayable",
      "type": "function"
    },
    {
      "inputs": [],
      "name": "unpause",
      "outputs": [],
      "stateMutability": "nonpayable",
      "type": "function"
    }
  ],
  "bytecode": "0x60806040523480156200001157600080fd5b506040518060400160405280600581526020017f5a656272610000000000000000000000000000000000000000000000000000008152506040518060400160405280600381526020017f5a42520000000000000000000000000000000000000000000000000000000000815250816000908051906020019062000096929190620001c1565b508060019080519060200190620000af929190620001c1565b5050506000600760006101000a81548160ff021916908315150217905550620000ed620000e1620000f360201b60201c565b620000fb60201b60201c565b620002d6565b600033905090565b6000600760019054906101000a900473ffffffffffffffffffffffffffffffffffffffff16905081600760016101000a81548173ffffffffffffffffffffffffffffffffffffffff021916908373ffffffffffffffffffffffffffffffffffffffff1602179055508173ffffffffffffffffffffffffffffffffffffffff168173ffffffffffffffffffffffffffffffffffffffff167f8be0079c531659141344cd1fd0a4f28419497f9722a3daafe3b4186f6b6457e060405160405180910390a35050565b828054620001cf9062000271565b90600052602060002090601f016020900481019282620001f357600085556200023f565b82601f106200020e57805160ff19168380011785556200023f565b828001600101855582156200023f579182015b828111156200023e57825182559160200191906001019062000221565b5b5090506200024e919062000252565b5090565b5b808211156200026d57600081600090555060010162000253565b5090565b600060028204905060018216806200028a57607f821691505b60208210811415620002a157620002a0620002a7565b5b50919050565b7f4e487b7100000000000000000000000000000000000000000000000000000000600052602260045260246000fd5b61346680620002e66000396000f3fe608060405234801561001057600080fd5b506004361061012c5760003560e01c8063715018a6116100ad578063a22cb46511610071578063a22cb465146102f7578063b88d4fde14610313578063c87b56dd1461032f578063e985e9c51461035f578063f2fde38b1461038f5761012c565b8063715018a61461028b57806372b3b620146102955780638456cb59146102b15780638da5cb5b146102bb57806395d89b41146102d95761012c565b80633f4ba83a116100f45780633f4ba83a146101e757806342842e0e146101f15780635c975abb1461020d5780636352211e1461022b57806370a082311461025b5761012c565b806301ffc9a71461013157806306fdde0314610161578063081812fc1461017f578063095ea7b3146101af57806323b872dd146101cb575b600080fd5b61014b6004803603810190610146919061220e565b6103ab565b6040516101589190612756565b60405180910390f35b61016961048d565b6040516101769190612771565b60405180910390f35b610199600480360381019061019491906122b4565b61051f565b6040516101a691906126ef565b60405180910390f35b6101c960048036038101906101c491906121d2565b6105a4565b005b6101e560048036038101906101e091906120cc565b6106bc565b005b6101ef61071c565b005b61020b600480360381019061020691906120cc565b6107a2565b005b6102156107c2565b6040516102229190612756565b60405180910390f35b610245600480360381019061024091906122b4565b6107d9565b60405161025291906126ef565b60405180910390f35b61027560048036038101906102709190612067565b61088b565b6040516102829190612a33565b60405180910390f35b610293610943565b005b6102af60048036038101906102aa9190612260565b6109cb565b005b6102b9610ad0565b005b6102c3610b56565b6040516102d091906126ef565b60405180910390f35b6102e1610b80565b6040516102ee9190612771565b60405180910390f35b610311600480360381019061030c9190612196565b610c12565b005b61032d6004803603810190610328919061211b565b610d93565b005b610349600480360381019061034491906122b4565b610df5565b6040516103569190612771565b60405180910390f35b61037960048036038101906103749190612090565b610f47565b6040516103869190612756565b60405180910390f35b6103a960048036038101906103a49190612067565b610fdb565b005b60007f80ac58cd000000000000000000000000000000000000000000000000000000007bffffffffffffffffffffffffffffffffffffffffffffffffffffffff1916827bffffffffffffffffffffffffffffffffffffffffffffffffffffffff1916148061047657507f5b5e139f000000000000000000000000000000000000000000000000000000007bffffffffffffffffffffffffffffffffffffffffffffffffffffffff1916827bffffffffffffffffffffffffffffffffffffffffffffffffffffffff1916145b806104865750610485826110d3565b5b9050919050565b60606000805461049c90612c89565b80601f01602080910402602001604051908101604052809291908181526020018280546104c890612c89565b80156105155780601f106104ea57610100808354040283529160200191610515565b820191906000526020600020905b8154815290600101906020018083116104f857829003601f168201915b5050505050905090565b600061052a8261113d565b610569576040517f08c379a000000000000000000000000000000000000000000000000000000000815260040161056090612973565b60405180910390fd5b6004600083815260200190815260200160002060009054906101000a900473ffffffffffffffffffffffffffffffffffffffff169050919050565b60006105af826107d9565b90508073ffffffffffffffffffffffffffffffffffffffff168373ffffffffffffffffffffffffffffffffffffffff161415610620576040517f08c379a0000000000000000000000000000000000000000000000000000000008152600401610617906129f3565b60405180910390fd5b8073ffffffffffffffffffffffffffffffffffffffff1661063f6111a9565b73ffffffffffffffffffffffffffffffffffffffff16148061066e575061066d816106686111a9565b610f47565b5b6106ad576040517f08c379a00000000000000000000000000000000000000000000000000000000081526004016106a4906128b3565b60405180910390fd5b6106b783836111b1565b505050565b6106cd6106c76111a9565b8261126a565b61070c576040517f08c379a000000000000000000000000000000000000000000000000000000000815260040161070390612a13565b60405180910390fd5b610717838383611348565b505050565b6107246111a9565b73ffffffffffffffffffffffffffffffffffffffff16610742610b56565b73ffffffffffffffffffffffffffffffffffffffff1614610798576040517f08c379a000000000000000000000000000000000000000000000000000000000815260040161078f90612993565b60405180910390fd5b6107a06115a4565b565b6107bd83838360405180602001604052806000815250610d93565b505050565b6000600760009054906101000a900460ff16905090565b6000806002600084815260200190815260200160002060009054906101000a900473ffffffffffffffffffffffffffffffffffffffff169050600073ffffffffffffffffffffffffffffffffffffffff168173ffffffffffffffffffffffffffffffffffffffff161415610882576040517f08c379a0000000000000000000000000000000000000000000000000000000008152600401610879906128f3565b60405180910390fd5b80915050919050565b60008073ffffffffffffffffffffffffffffffffffffffff168273ffffffffffffffffffffffffffffffffffffffff1614156108fc576040517f08c379a00000000000000000000000000000000000000000000000000000000081526004016108f3906128d3565b60405180910390fd5b600360008373ffffffffffffffffffffffffffffffffffffffff1673ffffffffffffffffffffffffffffffffffffffff168152602001908152602001600020549050919050565b61094b6111a9565b73ffffffffffffffffffffffffffffffffffffffff16610969610b56565b73ffffffffffffffffffffffffffffffffffffffff16146109bf576040517f08c379a00000000000000000000000000000000000000000000000000000000081526004016109b690612993565b60405180910390fd5b6109c96000611646565b565b6109d36107c2565b15610a13576040517f08c379a0000000000000000000000000000000000000000000000000000000008152600401610a0a90612893565b60405180910390fd5b60008111610a56576040517f08c379a0000000000000000000000000000000000000000000000000000000008152600401610a4d90612873565b60405180910390fd5b6000600190505b818111610acb576000610a70600861170c565b9050610a7c338261171a565b60008483604051602001610a919291906126c7565b6040516020818303038152906040529050610aac82826118e8565b610ab6600861195c565b50508080610ac390612cec565b915050610a5d565b505050565b610ad86111a9565b73ffffffffffffffffffffffffffffffffffffffff16610af6610b56565b73ffffffffffffffffffffffffffffffffffffffff1614610b4c576040517f08c379a0000000000000000000000000000000000000000000000000000000008152600401610b4390612993565b60405180910390fd5b610b54611972565b565b6000600760019054906101000a900473ffffffffffffffffffffffffffffffffffffffff16905090565b606060018054610b8f90612c89565b80601f0160208091040260200160405190810160405280929190818152602001828054610bbb90612c89565b8015610c085780601f10610bdd57610100808354040283529160200191610c08565b820191906000526020600020905b815481529060010190602001808311610beb57829003601f168201915b5050505050905090565b610c1a6111a9565b73ffffffffffffffffffffffffffffffffffffffff168273ffffffffffffffffffffffffffffffffffffffff161415610c88576040517f08c379a0000000000000000000000000000000000000000000000000000000008152600401610c7f90612833565b60405180910390fd5b8060056000610c956111a9565b73ffffffffffffffffffffffffffffffffffffffff1673ffffffffffffffffffffffffffffffffffffffff16815260200190815260200160002060008473ffffffffffffffffffffffffffffffffffffffff1673ffffffffffffffffffffffffffffffffffffffff16815260200190815260200160002060006101000a81548160ff0219169083151502179055508173ffffffffffffffffffffffffffffffffffffffff16610d426111a9565b73ffffffffffffffffffffffffffffffffffffffff167f17307eab39ab6107e8899845ad3d59bd9653f200f220920489ca2b5937696c3183604051610d879190612756565b60405180910390a35050565b610da4610d9e6111a9565b8361126a565b610de3576040517f08c379a0000000000000000000000000000000000000000000000000000000008152600401610dda90612a13565b60405180910390fd5b610def84848484611a15565b50505050565b6060610e008261113d565b610e3f576040517f08c379a0000000000000000000000000000000000000000000000000000000008152600401610e3690612953565b60405180910390fd5b6000600660008481526020019081526020016000208054610e5f90612c89565b80601f0160208091040260200160405190810160405280929190818152602001828054610e8b90612c89565b8015610ed85780601f10610ead57610100808354040283529160200191610ed8565b820191906000526020600020905b815481529060010190602001808311610ebb57829003601f168201915b505050505090506000610ee9611a71565b9050600081511415610eff578192505050610f42565b600082511115610f34578082604051602001610f1c9291906126a3565b60405160208183030381529060405292505050610f42565b610f3d84611a88565b925050505b919050565b6000600560008473ffffffffffffffffffffffffffffffffffffffff1673ffffffffffffffffffffffffffffffffffffffff16815260200190815260200160002060008373ffffffffffffffffffffffffffffffffffffffff1673ffffffffffffffffffffffffffffffffffffffff16815260200190815260200160002060009054906101000a900460ff16905092915050565b610fe36111a9565b73ffffffffffffffffffffffffffffffffffffffff16611001610b56565b73ffffffffffffffffffffffffffffffffffffffff1614611057576040517f08c379a000000000000000000000000000000000000000000000000000000000815260040161104e90612993565b60405180910390fd5b600073ffffffffffffffffffffffffffffffffffffffff168173ffffffffffffffffffffffffffffffffffffffff1614156110c7576040517f08c379a00000000000000000000000000000000000000000000000000000000081526004016110be906127d3565b60405180910390fd5b6110d081611646565b50565b60007f01ffc9a7000000000000000000000000000000000000000000000000000000007bffffffffffffffffffffffffffffffffffffffffffffffffffffffff1916827bffffffffffffffffffffffffffffffffffffffffffffffffffffffff1916149050919050565b60008073ffffffffffffffffffffffffffffffffffffffff166002600084815260200190815260200160002060009054906101000a900473ffffffffffffffffffffffffffffffffffffffff1673ffffffffffffffffffffffffffffffffffffffff1614159050919050565b600033905090565b816004600083815260200190815260200160002060006101000a81548173ffffffffffffffffffffffffffffffffffffffff021916908373ffffffffffffffffffffffffffffffffffffffff160217905550808273ffffffffffffffffffffffffffffffffffffffff16611224836107d9565b73ffffffffffffffffffffffffffffffffffffffff167f8c5be1e5ebec7d5bd14f71427d1e84f3dd0314c0f7b2291e5b200ac8c7c3b92560405160405180910390a45050565b60006112758261113d565b6112b4576040517f08c379a00000000000000000000000000000000000000000000000000000000081526004016112ab90612853565b60405180910390fd5b60006112bf836107d9565b90508073ffffffffffffffffffffffffffffffffffffffff168473ffffffffffffffffffffffffffffffffffffffff16148061132e57508373ffffffffffffffffffffffffffffffffffffffff166113168461051f565b73ffffffffffffffffffffffffffffffffffffffff16145b8061133f575061133e8185610f47565b5b91505092915050565b8273ffffffffffffffffffffffffffffffffffffffff16611368826107d9565b73ffffffffffffffffffffffffffffffffffffffff16146113be576040517f08c379a00000000000000000000000000000000000000000000000000000000081526004016113b5906129b3565b60405180910390fd5b600073ffffffffffffffffffffffffffffffffffffffff168273ffffffffffffffffffffffffffffffffffffffff16141561142e576040517f08c379a000000000000000000000000000000000000000000000000000000000815260040161142590612813565b60405180910390fd5b611439838383611b2f565b6114446000826111b1565b6001600360008573ffffffffffffffffffffffffffffffffffffffff1673ffffffffffffffffffffffffffffffffffffffff16815260200190815260200160002060008282546114949190612b9f565b925050819055506001600360008473ffffffffffffffffffffffffffffffffffffffff1673ffffffffffffffffffffffffffffffffffffffff16815260200190815260200160002060008282546114eb9190612b18565b92505081905550816002600083815260200190815260200160002060006101000a81548173ffffffffffffffffffffffffffffffffffffffff021916908373ffffffffffffffffffffffffffffffffffffffff160217905550808273ffffffffffffffffffffffffffffffffffffffff168473ffffffffffffffffffffffffffffffffffffffff167fddf252ad1be2c89b69c2b068fc378daa952ba7f163c4a11628f55a4df523b3ef60405160405180910390a4505050565b6115ac6107c2565b6115eb576040517f08c379a00000000000000000000000000000000000000000000000000000000081526004016115e290612793565b60405180910390fd5b6000600760006101000a81548160ff0219169083151502179055507f5db9ee0a495bf2e6ff9c91a7834c1ba4fdd244a5e8aa4e537bd38aeae4b073aa61162f6111a9565b60405161163c91906126ef565b60405180910390a1565b6000600760019054906101000a900473ffffffffffffffffffffffffffffffffffffffff16905081600760016101000a81548173ffffffffffffffffffffffffffffffffffffffff021916908373ffffffffffffffffffffffffffffffffffffffff1602179055508173ffffffffffffffffffffffffffffffffffffffff168173ffffffffffffffffffffffffffffffffffffffff167f8be0079c531659141344cd1fd0a4f28419497f9722a3daafe3b4186f6b6457e060405160405180910390a35050565b600081600001549050919050565b600073ffffffffffffffffffffffffffffffffffffffff168273ffffffffffffffffffffffffffffffffffffffff16141561178a576040517f08c379a000000000000000000000000000000000000000000000000000000000815260040161178190612933565b60405180910390fd5b6117938161113d565b156117d3576040517f08c379a00000000000000000000000000000000000000000000000000000000081526004016117ca906127f3565b60405180910390fd5b6117df60008383611b2f565b6001600360008473ffffffffffffffffffffffffffffffffffffffff1673ffffffffffffffffffffffffffffffffffffffff168152602001908152602001600020600082825461182f9190612b18565b92505081905550816002600083815260200190815260200160002060006101000a81548173ffffffffffffffffffffffffffffffffffffffff021916908373ffffffffffffffffffffffffffffffffffffffff160217905550808273ffffffffffffffffffffffffffffffffffffffff16600073ffffffffffffffffffffffffffffffffffffffff167fddf252ad1be2c89b69c2b068fc378daa952ba7f163c4a11628f55a4df523b3ef60405160405180910390a45050565b6118f18261113d565b611930576040517f08c379a000000000000000000000000000000000000000000000000000000000815260040161192790612913565b60405180910390fd5b80600660008481526020019081526020016000209080519060200190611957929190611e8b565b505050565b6001816000016000828254019250508190555050565b61197a6107c2565b156119ba576040517f08c379a00000000000000000000000000000000000000000000000000000000081526004016119b190612893565b60405180910390fd5b6001600760006101000a81548160ff0219169083151502179055507f62e78cea01bee320cd4e420270b5ea74000d11b0c9f74754ebdbfc544b05a2586119fe6111a9565b604051611a0b91906126ef565b60405180910390a1565b611a20848484611348565b611a2c84848484611b34565b611a6b576040517f08c379a0000000000000000000000000000000000000000000000000000000008152600401611a62906127b3565b60405180910390fd5b50505050565b606060405180602001604052806000815250905090565b6060611a938261113d565b611ad2576040517f08c379a0000000000000000000000000000000000000000000000000000000008152600401611ac9906129d3565b60405180910390fd5b6000611adc611a71565b90506000815111611afc5760405180602001604052806000815250611b27565b80611b0684611ccb565b604051602001611b179291906126a3565b6040516020818303038152906040525b915050919050565b505050565b6000611b558473ffffffffffffffffffffffffffffffffffffffff16611e78565b15611cbe578373ffffffffffffffffffffffffffffffffffffffff1663150b7a02611b7e6111a9565b8786866040518563ffffffff1660e01b8152600401611ba0949392919061270a565b602060405180830381600087803b158015611bba57600080fd5b505af1925050508015611beb57506040513d601f19601f82011682018060405250810190611be89190612237565b60015b611c6e573d8060008114611c1b576040519150601f19603f3d011682016040523d82523d6000602084013e611c20565b606091505b50600081511415611c66576040517f08c379a0000000000000000000000000000000000000000000000000000000008152600401611c5d906127b3565b60405180910390fd5b805181602001fd5b63150b7a0260e01b7bffffffffffffffffffffffffffffffffffffffffffffffffffffffff1916817bffffffffffffffffffffffffffffffffffffffffffffffffffffffff191614915050611cc3565b600190505b949350505050565b60606000821415611d13576040518060400160405280600181526020017f30000000000000000000000000000000000000000000000000000000000000008152509050611e73565b600082905060005b60008214611d45578080611d2e90612cec565b915050600a82611d3e9190612b6e565b9150611d1b565b60008167ffffffffffffffff811115611d87577f4e487b7100000000000000000000000000000000000000000000000000000000600052604160045260246000fd5b6040519080825280601f01601f191660200182016040528015611db95781602001600182028036833780820191505090505b5090505b60008514611e6c57600182611dd29190612b9f565b9150600a85611de19190612d3f565b6030611ded9190612b18565b60f81b818381518110611e29577f4e487b7100000000000000000000000000000000000000000000000000000000600052603260045260246000fd5b60200101907effffffffffffffffffffffffffffffffffffffffffffffffffffffffffffff1916908160001a905350600a85611e659190612b6e565b9450611dbd565b8093505050505b919050565b600080823b905060008111915050919050565b828054611e9790612c89565b90600052602060002090601f016020900481019282611eb95760008555611f00565b82601f10611ed257805160ff1916838001178555611f00565b82800160010185558215611f00579182015b82811115611eff578251825591602001919060010190611ee4565b5b509050611f0d9190611f11565b5090565b5b80821115611f2a576000816000905550600101611f12565b5090565b6000611f41611f3c84612a73565b612a4e565b905082815260208101848484011115611f5957600080fd5b611f64848285612c47565b509392505050565b6000611f7f611f7a84612aa4565b612a4e565b905082815260208101848484011115611f9757600080fd5b611fa2848285612c47565b509392505050565b600081359050611fb9816133d4565b92915050565b600081359050611fce816133eb565b92915050565b600081359050611fe381613402565b92915050565b600081519050611ff881613402565b92915050565b600082601f83011261200f57600080fd5b813561201f848260208601611f2e565b91505092915050565b600082601f83011261203957600080fd5b8135612049848260208601611f6c565b91505092915050565b60008135905061206181613419565b92915050565b60006020828403121561207957600080fd5b600061208784828501611faa565b91505092915050565b600080604083850312156120a357600080fd5b60006120b185828601611faa565b92505060206120c285828601611faa565b9150509250929050565b6000806000606084860312156120e157600080fd5b60006120ef86828701611faa565b935050602061210086828701611faa565b925050604061211186828701612052565b9150509250925092565b6000806000806080858703121561213157600080fd5b600061213f87828801611faa565b945050602061215087828801611faa565b935050604061216187828801612052565b925050606085013567ffffffffffffffff81111561217e57600080fd5b61218a87828801611ffe565b91505092959194509250565b600080604083850312156121a957600080fd5b60006121b785828601611faa565b92505060206121c885828601611fbf565b9150509250929050565b600080604083850312156121e557600080fd5b60006121f385828601611faa565b925050602061220485828601612052565b9150509250929050565b60006020828403121561222057600080fd5b600061222e84828501611fd4565b91505092915050565b60006020828403121561224957600080fd5b600061225784828501611fe9565b91505092915050565b6000806040838503121561227357600080fd5b600083013567ffffffffffffffff81111561228d57600080fd5b61229985828601612028565b92505060206122aa85828601612052565b9150509250929050565b6000602082840312156122c657600080fd5b60006122d484828501612052565b91505092915050565b6122e681612bd3565b82525050565b6122f581612be5565b82525050565b600061230682612ad5565b6123108185612aeb565b9350612320818560208601612c56565b61232981612e2c565b840191505092915050565b600061233f82612ae0565b6123498185612afc565b9350612359818560208601612c56565b61236281612e2c565b840191505092915050565b600061237882612ae0565b6123828185612b0d565b9350612392818560208601612c56565b80840191505092915050565b60006123ab601483612afc565b91506123b682612e3d565b602082019050919050565b60006123ce603283612afc565b91506123d982612e66565b604082019050919050565b60006123f1602683612afc565b91506123fc82612eb5565b604082019050919050565b6000612414601c83612afc565b915061241f82612f04565b602082019050919050565b6000612437602483612afc565b915061244282612f2d565b604082019050919050565b600061245a601983612afc565b915061246582612f7c565b602082019050919050565b600061247d602c83612afc565b915061248882612fa5565b604082019050919050565b60006124a0602583612afc565b91506124ab82612ff4565b604082019050919050565b60006124c3601083612afc565b91506124ce82613043565b602082019050919050565b60006124e6603883612afc565b91506124f18261306c565b604082019050919050565b6000612509602a83612afc565b9150612514826130bb565b604082019050919050565b600061252c602983612afc565b91506125378261310a565b604082019050919050565b600061254f602e83612afc565b915061255a82613159565b604082019050919050565b6000612572602083612afc565b915061257d826131a8565b602082019050919050565b6000612595603183612afc565b91506125a0826131d1565b604082019050919050565b60006125b8602c83612afc565b91506125c382613220565b604082019050919050565b60006125db602083612afc565b91506125e68261326f565b602082019050919050565b60006125fe602983612afc565b915061260982613298565b604082019050919050565b6000612621602f83612afc565b915061262c826132e7565b604082019050919050565b6000612644602183612afc565b915061264f82613336565b604082019050919050565b6000612667603183612afc565b915061267282613385565b604082019050919050565b61268681612c3d565b82525050565b61269d61269882612c3d565b612d35565b82525050565b60006126af828561236d565b91506126bb828461236d565b91508190509392505050565b60006126d3828561236d565b91506126df828461268c565b6020820191508190509392505050565b600060208201905061270460008301846122dd565b92915050565b600060808201905061271f60008301876122dd565b61272c60208301866122dd565b612739604083018561267d565b818103606083015261274b81846122fb565b905095945050505050565b600060208201905061276b60008301846122ec565b92915050565b6000602082019050818103600083015261278b8184612334565b905092915050565b600060208201905081810360008301526127ac8161239e565b9050919050565b600060208201905081810360008301526127cc816123c1565b9050919050565b600060208201905081810360008301526127ec816123e4565b9050919050565b6000602082019050818103600083015261280c81612407565b9050919050565b6000602082019050818103600083015261282c8161242a565b9050919050565b6000602082019050818103600083015261284c8161244d565b9050919050565b6000602082019050818103600083015261286c81612470565b9050919050565b6000602082019050818103600083015261288c81612493565b9050919050565b600060208201905081810360008301526128ac816124b6565b9050919050565b600060208201905081810360008301526128cc816124d9565b9050919050565b600060208201905081810360008301526128ec816124fc565b9050919050565b6000602082019050818103600083015261290c8161251f565b9050919050565b6000602082019050818103600083015261292c81612542565b9050919050565b6000602082019050818103600083015261294c81612565565b9050919050565b6000602082019050818103600083015261296c81612588565b9050919050565b6000602082019050818103600083015261298c816125ab565b9050919050565b600060208201905081810360008301526129ac816125ce565b9050919050565b600060208201905081810360008301526129cc816125f1565b9050919050565b600060208201905081810360008301526129ec81612614565b9050919050565b60006020820190508181036000830152612a0c81612637565b9050919050565b60006020820190508181036000830152612a2c8161265a565b9050919050565b6000602082019050612a48600083018461267d565b92915050565b6000612a58612a69565b9050612a648282612cbb565b919050565b6000604051905090565b600067ffffffffffffffff821115612a8e57612a8d612dfd565b5b612a9782612e2c565b9050602081019050919050565b600067ffffffffffffffff821115612abf57612abe612dfd565b5b612ac882612e2c565b9050602081019050919050565b600081519050919050565b600081519050919050565b600082825260208201905092915050565b600082825260208201905092915050565b600081905092915050565b6000612b2382612c3d565b9150612b2e83612c3d565b9250827fffffffffffffffffffffffffffffffffffffffffffffffffffffffffffffffff03821115612b6357612b62612d70565b5b828201905092915050565b6000612b7982612c3d565b9150612b8483612c3d565b925082612b9457612b93612d9f565b5b828204905092915050565b6000612baa82612c3d565b9150612bb583612c3d565b925082821015612bc857612bc7612d70565b5b828203905092915050565b6000612bde82612c1d565b9050919050565b60008115159050919050565b60007fffffffff0000000000000000000000000000000000000000000000000000000082169050919050565b600073ffffffffffffffffffffffffffffffffffffffff82169050919050565b6000819050919050565b82818337600083830152505050565b60005b83811015612c74578082015181840152602081019050612c59565b83811115612c83576000848401525b50505050565b60006002820490506001821680612ca157607f821691505b60208210811415612cb557612cb4612dce565b5b50919050565b612cc482612e2c565b810181811067ffffffffffffffff82111715612ce357612ce2612dfd565b5b80604052505050565b6000612cf782612c3d565b91507fffffffffffffffffffffffffffffffffffffffffffffffffffffffffffffffff821415612d2a57612d29612d70565b5b600182019050919050565b6000819050919050565b6000612d4a82612c3d565b9150612d5583612c3d565b925082612d6557612d64612d9f565b5b828206905092915050565b7f4e487b7100000000000000000000000000000000000000000000000000000000600052601160045260246000fd5b7f4e487b7100000000000000000000000000000000000000000000000000000000600052601260045260246000fd5b7f4e487b7100000000000000000000000000000000000000000000000000000000600052602260045260246000fd5b7f4e487b7100000000000000000000000000000000000000000000000000000000600052604160045260246000fd5b6000601f19601f8301169050919050565b7f5061757361626c653a206e6f7420706175736564000000000000000000000000600082015250565b7f4552433732313a207472616e7366657220746f206e6f6e20455243373231526560008201527f63656976657220696d706c656d656e7465720000000000000000000000000000602082015250565b7f4f776e61626c653a206e6577206f776e657220697320746865207a65726f206160008201527f6464726573730000000000000000000000000000000000000000000000000000602082015250565b7f4552433732313a20746f6b656e20616c7265616479206d696e74656400000000600082015250565b7f4552433732313a207472616e7366657220746f20746865207a65726f2061646460008201527f7265737300000000000000000000000000000000000000000000000000000000602082015250565b7f4552433732313a20617070726f766520746f2063616c6c657200000000000000600082015250565b7f4552433732313a206f70657261746f7220717565727920666f72206e6f6e657860008201527f697374656e7420746f6b656e0000000000000000000000000000000000000000602082015250565b7f4d696e696d756d206e756d626572206f66206d696e7461626c6520746f6b656e60008201527f2069732031000000000000000000000000000000000000000000000000000000602082015250565b7f5061757361626c653a2070617573656400000000000000000000000000000000600082015250565b7f4552433732313a20617070726f76652063616c6c6572206973206e6f74206f7760008201527f6e6572206e6f7220617070726f76656420666f7220616c6c0000000000000000602082015250565b7f4552433732313a2062616c616e636520717565727920666f7220746865207a6560008201527f726f206164647265737300000000000000000000000000000000000000000000602082015250565b7f4552433732313a206f776e657220717565727920666f72206e6f6e657869737460008201527f656e7420746f6b656e0000000000000000000000000000000000000000000000602082015250565b7f45524337323155524953746f726167653a2055524920736574206f66206e6f6e60008201527f6578697374656e7420746f6b656e000000000000000000000000000000000000602082015250565b7f4552433732313a206d696e7420746f20746865207a65726f2061646472657373600082015250565b7f45524337323155524953746f726167653a2055524920717565727920666f722060008201527f6e6f6e6578697374656e7420746f6b656e000000000000000000000000000000602082015250565b7f4552433732313a20617070726f76656420717565727920666f72206e6f6e657860008201527f697374656e7420746f6b656e0000000000000000000000000000000000000000602082015250565b7f4f776e61626c653a2063616c6c6572206973206e6f7420746865206f776e6572600082015250565b7f4552433732313a207472616e73666572206f6620746f6b656e2074686174206960008201527f73206e6f74206f776e0000000000000000000000000000000000000000000000602082015250565b7f4552433732314d657461646174613a2055524920717565727920666f72206e6f60008201527f6e6578697374656e7420746f6b656e0000000000000000000000000000000000602082015250565b7f4552433732313a20617070726f76616c20746f2063757272656e74206f776e6560008201527f7200000000000000000000000000000000000000000000000000000000000000602082015250565b7f4552433732313a207472616e736665722063616c6c6572206973206e6f74206f60008201527f776e6572206e6f7220617070726f766564000000000000000000000000000000602082015250565b6133dd81612bd3565b81146133e857600080fd5b50565b6133f481612be5565b81146133ff57600080fd5b50565b61340b81612bf1565b811461341657600080fd5b50565b61342281612c3d565b811461342d57600080fd5b5056fea2646970667358221220b34422be3b8bea85a554691c7f2a92d0bee6649eb54b6a0cd1aae8fa6213572c64736f6c63430008040033",
  "linkReferences": {},
  "deployedLinkReferences": {}
}