{
  "_format": "hh-sol-artifact-1",
  "contractName": "Zebra",
  "sourceName": "contracts/Zebra.sol",
  "abi": [
    {
      "inputs": [],
      "stateMutability": "nonpayable",
      "type": "constructor"
    },
    {
      "anonymous": false,
      "inputs": [
        {
          "indexed": true,
          "internalType": "address",
          "name": "owner",
          "type": "address"
        },
        {
          "indexed": true,
          "internalType": "address",
          "name": "approved",
          "type": "address"
        },
        {
          "indexed": true,
          "internalType": "uint256",
          "name": "tokenId",
          "type": "uint256"
        }
      ],
      "name": "Approval",
      "type": "event"
    },
    {
      "anonymous": false,
      "inputs": [
        {
          "indexed": true,
          "internalType": "address",
          "name": "owner",
          "type": "address"
        },
        {
          "indexed": true,
          "internalType": "address",
          "name": "operator",
          "type": "address"
        },
        {
          "indexed": false,
          "internalType": "bool",
          "name": "approved",
          "type": "bool"
        }
      ],
      "name": "ApprovalForAll",
      "type": "event"
    },
    {
      "anonymous": false,
      "inputs": [
        {
          "indexed": true,
          "internalType": "address",
          "name": "previousOwner",
          "type": "address"
        },
        {
          "indexed": true,
          "internalType": "address",
          "name": "newOwner",
          "type": "address"
        }
      ],
      "name": "OwnershipTransferred",
      "type": "event"
    },
    {
      "anonymous": false,
      "inputs": [
        {
          "indexed": false,
          "internalType": "address",
          "name": "account",
          "type": "address"
        }
      ],
      "name": "Paused",
      "type": "event"
    },
    {
      "anonymous": false,
      "inputs": [
        {
          "indexed": true,
          "internalType": "address",
          "name": "from",
          "type": "address"
        },
        {
          "indexed": true,
          "internalType": "address",
          "name": "to",
          "type": "address"
        },
        {
          "indexed": true,
          "internalType": "uint256",
          "name": "tokenId",
          "type": "uint256"
        }
      ],
      "name": "Transfer",
      "type": "event"
    },
    {
      "anonymous": false,
      "inputs": [
        {
          "indexed": false,
          "internalType": "address",
          "name": "account",
          "type": "address"
        }
      ],
      "name": "Unpaused",
      "type": "event"
    },
    {
      "inputs": [
        {
          "internalType": "address",
          "name": "to",
          "type": "address"
        },
        {
          "internalType": "uint256",
          "name": "tokenId",
          "type": "uint256"
        }
      ],
      "name": "approve",
      "outputs": [],
      "stateMutability": "nonpayable",
      "type": "function"
    },
    {
      "inputs": [
        {
          "internalType": "address",
          "name": "owner",
          "type": "address"
        }
      ],
      "name": "balanceOf",
      "outputs": [
        {
          "internalType": "uint256",
          "name": "",
          "type": "uint256"
        }
      ],
      "stateMutability": "view",
      "type": "function"
    },
    {
      "inputs": [
        {
          "internalType": "string",
          "name": "tokenURI",
          "type": "string"
        },
        {
          "internalType": "uint256",
          "name": "_mintAmount",
          "type": "uint256"
        }
      ],
      "name": "createToken",
      "outputs": [],
      "stateMutability": "payable",
      "type": "function"
    },
    {
      "inputs": [
        {
          "internalType": "uint256",
          "name": "tokenId",
          "type": "uint256"
        }
      ],
      "name": "getApproved",
      "outputs": [
        {
          "internalType": "address",
          "name": "",
          "type": "address"
        }
      ],
      "stateMutability": "view",
      "type": "function"
    },
    {
      "inputs": [
        {
          "internalType": "uint256",
          "name": "_mintAmount",
          "type": "uint256"
        }
      ],
      "name": "getMintingPrice",
      "outputs": [
        {
          "internalType": "uint256",
          "name": "",
          "type": "uint256"
        }
      ],
      "stateMutability": "view",
      "type": "function"
    },
    {
      "inputs": [
        {
          "internalType": "address",
          "name": "owner",
          "type": "address"
        },
        {
          "internalType": "address",
          "name": "operator",
          "type": "address"
        }
      ],
      "name": "isApprovedForAll",
      "outputs": [
        {
          "internalType": "bool",
          "name": "",
          "type": "bool"
        }
      ],
      "stateMutability": "view",
      "type": "function"
    },
    {
      "inputs": [],
      "name": "name",
      "outputs": [
        {
          "internalType": "string",
          "name": "",
          "type": "string"
        }
      ],
      "stateMutability": "view",
      "type": "function"
    },
    {
      "inputs": [],
      "name": "owner",
      "outputs": [
        {
          "internalType": "address",
          "name": "",
          "type": "address"
        }
      ],
      "stateMutability": "view",
      "type": "function"
    },
    {
      "inputs": [
        {
          "internalType": "uint256",
          "name": "tokenId",
          "type": "uint256"
        }
      ],
      "name": "ownerOf",
      "outputs": [
        {
          "internalType": "address",
          "name": "",
          "type": "address"
        }
      ],
      "stateMutability": "view",
      "type": "function"
    },
    {
      "inputs": [],
      "name": "pause",
      "outputs": [],
      "stateMutability": "nonpayable",
      "type": "function"
    },
    {
      "inputs": [],
      "name": "paused",
      "outputs": [
        {
          "internalType": "bool",
          "name": "",
          "type": "bool"
        }
      ],
      "stateMutability": "view",
      "type": "function"
    },
    {
      "inputs": [],
      "name": "renounceOwnership",
      "outputs": [],
      "stateMutability": "nonpayable",
      "type": "function"
    },
    {
      "inputs": [
        {
          "internalType": "address",
          "name": "from",
          "type": "address"
        },
        {
          "internalType": "address",
          "name": "to",
          "type": "address"
        },
        {
          "internalType": "uint256",
          "name": "tokenId",
          "type": "uint256"
        }
      ],
      "name": "safeTransferFrom",
      "outputs": [],
      "stateMutability": "nonpayable",
      "type": "function"
    },
    {
      "inputs": [
        {
          "internalType": "address",
          "name": "from",
          "type": "address"
        },
        {
          "internalType": "address",
          "name": "to",
          "type": "address"
        },
        {
          "internalType": "uint256",
          "name": "tokenId",
          "type": "uint256"
        },
        {
          "internalType": "bytes",
          "name": "_data",
          "type": "bytes"
        }
      ],
      "name": "safeTransferFrom",
      "outputs": [],
      "stateMutability": "nonpayable",
      "type": "function"
    },
    {
      "inputs": [
        {
          "internalType": "address",
          "name": "operator",
          "type": "address"
        },
        {
          "internalType": "bool",
          "name": "approved",
          "type": "bool"
        }
      ],
      "name": "setApprovalForAll",
      "outputs": [],
      "stateMutability": "nonpayable",
      "type": "function"
    },
    {
      "inputs": [
        {
          "internalType": "uint256",
          "name": "_limit",
          "type": "uint256"
        }
      ],
      "name": "setNftPerAddressLimit",
      "outputs": [],
      "stateMutability": "nonpayable",
      "type": "function"
    },
    {
      "inputs": [
        {
          "internalType": "bool",
          "name": "_state",
          "type": "bool"
        }
      ],
      "name": "setOnlyWhitelisted",
      "outputs": [],
      "stateMutability": "nonpayable",
      "type": "function"
    },
    {
      "inputs": [
        {
          "internalType": "bytes4",
          "name": "interfaceId",
          "type": "bytes4"
        }
      ],
      "name": "supportsInterface",
      "outputs": [
        {
          "internalType": "bool",
          "name": "",
          "type": "bool"
        }
      ],
      "stateMutability": "view",
      "type": "function"
    },
    {
      "inputs": [],
      "name": "symbol",
      "outputs": [
        {
          "internalType": "string",
          "name": "",
          "type": "string"
        }
      ],
      "stateMutability": "view",
      "type": "function"
    },
    {
      "inputs": [
        {
          "internalType": "uint256",
          "name": "tokenId",
          "type": "uint256"
        }
      ],
      "name": "tokenURI",
      "outputs": [
        {
          "internalType": "string",
          "name": "",
          "type": "string"
        }
      ],
      "stateMutability": "view",
      "type": "function"
    },
    {
      "inputs": [
        {
          "internalType": "address",
          "name": "from",
          "type": "address"
        },
        {
          "internalType": "address",
          "name": "to",
          "type": "address"
        },
        {
          "internalType": "uint256",
          "name": "tokenId",
          "type": "uint256"
        }
      ],
      "name": "transferFrom",
      "outputs": [],
      "stateMutability": "nonpayable",
      "type": "function"
    },
    {
      "inputs": [
        {
          "internalType": "address",
          "name": "newOwner",
          "type": "address"
        }
      ],
      "name": "transferOwnership",
      "outputs": [],
      "stateMutability": "nonpayable",
      "type": "function"
    },
    {
      "inputs": [],
      "name": "unpause",
      "outputs": [],
      "stateMutability": "nonpayable",
      "type": "function"
    },
    {
      "inputs": [
        {
          "internalType": "address[]",
          "name": "_users",
          "type": "address[]"
        }
      ],
      "name": "whitelistUsers",
      "outputs": [],
      "stateMutability": "nonpayable",
      "type": "function"
    }
  ],
  "bytecode": "0x60806040526601c6bf526340006009556001600b60006101000a81548160ff0219169083151502179055506003600c553480156200003c57600080fd5b506040518060400160405280600581526020017f5a656272610000000000000000000000000000000000000000000000000000008152506040518060400160405280600381526020017f5a425200000000000000000000000000000000000000000000000000000000008152508160009080519060200190620000c1929190620001ec565b508060019080519060200190620000da929190620001ec565b5050506000600760006101000a81548160ff021916908315150217905550620001186200010c6200011e60201b60201c565b6200012660201b60201c565b62000301565b600033905090565b6000600760019054906101000a900473ffffffffffffffffffffffffffffffffffffffff16905081600760016101000a81548173ffffffffffffffffffffffffffffffffffffffff021916908373ffffffffffffffffffffffffffffffffffffffff1602179055508173ffffffffffffffffffffffffffffffffffffffff168173ffffffffffffffffffffffffffffffffffffffff167f8be0079c531659141344cd1fd0a4f28419497f9722a3daafe3b4186f6b6457e060405160405180910390a35050565b828054620001fa906200029c565b90600052602060002090601f0160209004810192826200021e57600085556200026a565b82601f106200023957805160ff19168380011785556200026a565b828001600101855582156200026a579182015b82811115620002695782518255916020019190600101906200024c565b5b5090506200027991906200027d565b5090565b5b80821115620002985760008160009055506001016200027e565b5090565b60006002820490506001821680620002b557607f821691505b60208210811415620002cc57620002cb620002d2565b5b50919050565b7f4e487b7100000000000000000000000000000000000000000000000000000000600052602260045260246000fd5b613d2080620003116000396000f3fe60806040526004361061014b5760003560e01c806372b3b620116100b6578063c87b56dd1161006f578063c87b56dd14610447578063d0eb26b014610484578063e985e9c5146104ad578063eb1635ed146104ea578063edec5f2714610527578063f2fde38b146105505761014b565b806372b3b6201461036c5780638456cb59146103885780638da5cb5b1461039f57806395d89b41146103ca578063a22cb465146103f5578063b88d4fde1461041e5761014b565b80633f4ba83a116101085780633f4ba83a1461027057806342842e0e146102875780635c975abb146102b05780636352211e146102db57806370a0823114610318578063715018a6146103555761014b565b806301ffc9a71461015057806306fdde031461018d578063081812fc146101b8578063095ea7b3146101f557806323b872dd1461021e5780633c95276414610247575b600080fd5b34801561015c57600080fd5b50610177600480360381019061017291906128de565b610579565b6040516101849190612e8f565b60405180910390f35b34801561019957600080fd5b506101a261065b565b6040516101af9190612eaa565b60405180910390f35b3480156101c457600080fd5b506101df60048036038101906101da9190612984565b6106ed565b6040516101ec9190612e28565b60405180910390f35b34801561020157600080fd5b5061021c60048036038101906102179190612834565b610772565b005b34801561022a57600080fd5b506102456004803603810190610240919061272e565b61088a565b005b34801561025357600080fd5b5061026e600480360381019061026991906128b5565b6108ea565b005b34801561027c57600080fd5b50610285610983565b005b34801561029357600080fd5b506102ae60048036038101906102a9919061272e565b610a09565b005b3480156102bc57600080fd5b506102c5610a29565b6040516102d29190612e8f565b60405180910390f35b3480156102e757600080fd5b5061030260048036038101906102fd9190612984565b610a40565b60405161030f9190612e28565b60405180910390f35b34801561032457600080fd5b5061033f600480360381019061033a91906126c9565b610af2565b60405161034c91906131cc565b60405180910390f35b34801561036157600080fd5b5061036a610baa565b005b61038660048036038101906103819190612930565b610c32565b005b34801561039457600080fd5b5061039d610e91565b005b3480156103ab57600080fd5b506103b4610f17565b6040516103c19190612e28565b60405180910390f35b3480156103d657600080fd5b506103df610f41565b6040516103ec9190612eaa565b60405180910390f35b34801561040157600080fd5b5061041c600480360381019061041791906127f8565b610fd3565b005b34801561042a57600080fd5b506104456004803603810190610440919061277d565b611154565b005b34801561045357600080fd5b5061046e60048036038101906104699190612984565b6111b6565b60405161047b9190612eaa565b60405180910390f35b34801561049057600080fd5b506104ab60048036038101906104a69190612984565b611308565b005b3480156104b957600080fd5b506104d460048036038101906104cf91906126f2565b61138e565b6040516104e19190612e8f565b60405180910390f35b3480156104f657600080fd5b50610511600480360381019061050c9190612984565b611422565b60405161051e91906131cc565b60405180910390f35b34801561053357600080fd5b5061054e60048036038101906105499190612870565b611439565b005b34801561055c57600080fd5b50610577600480360381019061057291906126c9565b61145d565b005b60007f80ac58cd000000000000000000000000000000000000000000000000000000007bffffffffffffffffffffffffffffffffffffffffffffffffffffffff1916827bffffffffffffffffffffffffffffffffffffffffffffffffffffffff1916148061064457507f5b5e139f000000000000000000000000000000000000000000000000000000007bffffffffffffffffffffffffffffffffffffffffffffffffffffffff1916827bffffffffffffffffffffffffffffffffffffffffffffffffffffffff1916145b80610654575061065382611555565b5b9050919050565b60606000805461066a9061347c565b80601f01602080910402602001604051908101604052809291908181526020018280546106969061347c565b80156106e35780601f106106b8576101008083540402835291602001916106e3565b820191906000526020600020905b8154815290600101906020018083116106c657829003601f168201915b5050505050905090565b60006106f8826115bf565b610737576040517f08c379a000000000000000000000000000000000000000000000000000000000815260040161072e906130ec565b60405180910390fd5b6004600083815260200190815260200160002060009054906101000a900473ffffffffffffffffffffffffffffffffffffffff169050919050565b600061077d82610a40565b90508073ffffffffffffffffffffffffffffffffffffffff168373ffffffffffffffffffffffffffffffffffffffff1614156107ee576040517f08c379a00000000000000000000000000000000000000000000000000000000081526004016107e59061316c565b60405180910390fd5b8073ffffffffffffffffffffffffffffffffffffffff1661080d61162b565b73ffffffffffffffffffffffffffffffffffffffff16148061083c575061083b8161083661162b565b61138e565b5b61087b576040517f08c379a00000000000000000000000000000000000000000000000000000000081526004016108729061302c565b60405180910390fd5b6108858383611633565b505050565b61089b61089561162b565b826116ec565b6108da576040517f08c379a00000000000000000000000000000000000000000000000000000000081526004016108d19061318c565b60405180910390fd5b6108e58383836117ca565b505050565b6108f261162b565b73ffffffffffffffffffffffffffffffffffffffff16610910610f17565b73ffffffffffffffffffffffffffffffffffffffff1614610966576040517f08c379a000000000000000000000000000000000000000000000000000000000815260040161095d9061310c565b60405180910390fd5b80600b60006101000a81548160ff02191690831515021790555050565b61098b61162b565b73ffffffffffffffffffffffffffffffffffffffff166109a9610f17565b73ffffffffffffffffffffffffffffffffffffffff16146109ff576040517f08c379a00000000000000000000000000000000000000000000000000000000081526004016109f69061310c565b60405180910390fd5b610a07611a26565b565b610a2483838360405180602001604052806000815250611154565b505050565b6000600760009054906101000a900460ff16905090565b6000806002600084815260200190815260200160002060009054906101000a900473ffffffffffffffffffffffffffffffffffffffff169050600073ffffffffffffffffffffffffffffffffffffffff168173ffffffffffffffffffffffffffffffffffffffff161415610ae9576040517f08c379a0000000000000000000000000000000000000000000000000000000008152600401610ae09061306c565b60405180910390fd5b80915050919050565b60008073ffffffffffffffffffffffffffffffffffffffff168273ffffffffffffffffffffffffffffffffffffffff161415610b63576040517f08c379a0000000000000000000000000000000000000000000000000000000008152600401610b5a9061304c565b60405180910390fd5b600360008373ffffffffffffffffffffffffffffffffffffffff1673ffffffffffffffffffffffffffffffffffffffff168152602001908152602001600020549050919050565b610bb261162b565b73ffffffffffffffffffffffffffffffffffffffff16610bd0610f17565b73ffffffffffffffffffffffffffffffffffffffff1614610c26576040517f08c379a0000000000000000000000000000000000000000000000000000000008152600401610c1d9061310c565b60405180910390fd5b610c306000611ac8565b565b610c3a610a29565b15610c7a576040517f08c379a0000000000000000000000000000000000000000000000000000000008152600401610c719061300c565b60405180910390fd5b60008111610cbd576040517f08c379a0000000000000000000000000000000000000000000000000000000008152600401610cb490612fec565b60405180910390fd5b600081600954610ccd9190613338565b905060011515600b60009054906101000a900460ff1615151415610dd457803414610d2d576040517f08c379a0000000000000000000000000000000000000000000000000000000008152600401610d2490612f2c565b60405180910390fd5b610d3633611b8e565b610d75576040517f08c379a0000000000000000000000000000000000000000000000000000000008152600401610d6c906131ac565b60405180910390fd5b6000610d8033610af2565b9050600c548382610d9191906132b1565b1115610dd2576040517f08c379a0000000000000000000000000000000000000000000000000000000008152600401610dc990612fac565b60405180910390fd5b505b803414610e16576040517f08c379a0000000000000000000000000000000000000000000000000000000008152600401610e0d90612f2c565b60405180910390fd5b6000600190505b828111610e8b576000610e306008611c63565b9050610e3c3382611c71565b60008583604051602001610e51929190612e00565b6040516020818303038152906040529050610e6c8282611e3f565b610e766008611eb3565b50508080610e83906134df565b915050610e1d565b50505050565b610e9961162b565b73ffffffffffffffffffffffffffffffffffffffff16610eb7610f17565b73ffffffffffffffffffffffffffffffffffffffff1614610f0d576040517f08c379a0000000000000000000000000000000000000000000000000000000008152600401610f049061310c565b60405180910390fd5b610f15611ec9565b565b6000600760019054906101000a900473ffffffffffffffffffffffffffffffffffffffff16905090565b606060018054610f509061347c565b80601f0160208091040260200160405190810160405280929190818152602001828054610f7c9061347c565b8015610fc95780601f10610f9e57610100808354040283529160200191610fc9565b820191906000526020600020905b815481529060010190602001808311610fac57829003601f168201915b5050505050905090565b610fdb61162b565b73ffffffffffffffffffffffffffffffffffffffff168273ffffffffffffffffffffffffffffffffffffffff161415611049576040517f08c379a000000000000000000000000000000000000000000000000000000000815260040161104090612f8c565b60405180910390fd5b806005600061105661162b565b73ffffffffffffffffffffffffffffffffffffffff1673ffffffffffffffffffffffffffffffffffffffff16815260200190815260200160002060008473ffffffffffffffffffffffffffffffffffffffff1673ffffffffffffffffffffffffffffffffffffffff16815260200190815260200160002060006101000a81548160ff0219169083151502179055508173ffffffffffffffffffffffffffffffffffffffff1661110361162b565b73ffffffffffffffffffffffffffffffffffffffff167f17307eab39ab6107e8899845ad3d59bd9653f200f220920489ca2b5937696c31836040516111489190612e8f565b60405180910390a35050565b61116561115f61162b565b836116ec565b6111a4576040517f08c379a000000000000000000000000000000000000000000000000000000000815260040161119b9061318c565b60405180910390fd5b6111b084848484611f6c565b50505050565b60606111c1826115bf565b611200576040517f08c379a00000000000000000000000000000000000000000000000000000000081526004016111f7906130cc565b60405180910390fd5b60006006600084815260200190815260200160002080546112209061347c565b80601f016020809104026020016040519081016040528092919081815260200182805461124c9061347c565b80156112995780601f1061126e57610100808354040283529160200191611299565b820191906000526020600020905b81548152906001019060200180831161127c57829003601f168201915b5050505050905060006112aa611fc8565b90506000815114156112c0578192505050611303565b6000825111156112f55780826040516020016112dd929190612ddc565b60405160208183030381529060405292505050611303565b6112fe84611fdf565b925050505b919050565b61131061162b565b73ffffffffffffffffffffffffffffffffffffffff1661132e610f17565b73ffffffffffffffffffffffffffffffffffffffff1614611384576040517f08c379a000000000000000000000000000000000000000000000000000000000815260040161137b9061310c565b60405180910390fd5b80600c8190555050565b6000600560008473ffffffffffffffffffffffffffffffffffffffff1673ffffffffffffffffffffffffffffffffffffffff16815260200190815260200160002060008373ffffffffffffffffffffffffffffffffffffffff1673ffffffffffffffffffffffffffffffffffffffff16815260200190815260200160002060009054906101000a900460ff16905092915050565b6000600954826114329190613338565b9050919050565b600a600061144791906123e2565b8181600a9190611458929190612403565b505050565b61146561162b565b73ffffffffffffffffffffffffffffffffffffffff16611483610f17565b73ffffffffffffffffffffffffffffffffffffffff16146114d9576040517f08c379a00000000000000000000000000000000000000000000000000000000081526004016114d09061310c565b60405180910390fd5b600073ffffffffffffffffffffffffffffffffffffffff168173ffffffffffffffffffffffffffffffffffffffff161415611549576040517f08c379a000000000000000000000000000000000000000000000000000000000815260040161154090612f0c565b60405180910390fd5b61155281611ac8565b50565b60007f01ffc9a7000000000000000000000000000000000000000000000000000000007bffffffffffffffffffffffffffffffffffffffffffffffffffffffff1916827bffffffffffffffffffffffffffffffffffffffffffffffffffffffff1916149050919050565b60008073ffffffffffffffffffffffffffffffffffffffff166002600084815260200190815260200160002060009054906101000a900473ffffffffffffffffffffffffffffffffffffffff1673ffffffffffffffffffffffffffffffffffffffff1614159050919050565b600033905090565b816004600083815260200190815260200160002060006101000a81548173ffffffffffffffffffffffffffffffffffffffff021916908373ffffffffffffffffffffffffffffffffffffffff160217905550808273ffffffffffffffffffffffffffffffffffffffff166116a683610a40565b73ffffffffffffffffffffffffffffffffffffffff167f8c5be1e5ebec7d5bd14f71427d1e84f3dd0314c0f7b2291e5b200ac8c7c3b92560405160405180910390a45050565b60006116f7826115bf565b611736576040517f08c379a000000000000000000000000000000000000000000000000000000000815260040161172d90612fcc565b60405180910390fd5b600061174183610a40565b90508073ffffffffffffffffffffffffffffffffffffffff168473ffffffffffffffffffffffffffffffffffffffff1614806117b057508373ffffffffffffffffffffffffffffffffffffffff16611798846106ed565b73ffffffffffffffffffffffffffffffffffffffff16145b806117c157506117c0818561138e565b5b91505092915050565b8273ffffffffffffffffffffffffffffffffffffffff166117ea82610a40565b73ffffffffffffffffffffffffffffffffffffffff1614611840576040517f08c379a00000000000000000000000000000000000000000000000000000000081526004016118379061312c565b60405180910390fd5b600073ffffffffffffffffffffffffffffffffffffffff168273ffffffffffffffffffffffffffffffffffffffff1614156118b0576040517f08c379a00000000000000000000000000000000000000000000000000000000081526004016118a790612f6c565b60405180910390fd5b6118bb838383612086565b6118c6600082611633565b6001600360008573ffffffffffffffffffffffffffffffffffffffff1673ffffffffffffffffffffffffffffffffffffffff16815260200190815260200160002060008282546119169190613392565b925050819055506001600360008473ffffffffffffffffffffffffffffffffffffffff1673ffffffffffffffffffffffffffffffffffffffff168152602001908152602001600020600082825461196d91906132b1565b92505081905550816002600083815260200190815260200160002060006101000a81548173ffffffffffffffffffffffffffffffffffffffff021916908373ffffffffffffffffffffffffffffffffffffffff160217905550808273ffffffffffffffffffffffffffffffffffffffff168473ffffffffffffffffffffffffffffffffffffffff167fddf252ad1be2c89b69c2b068fc378daa952ba7f163c4a11628f55a4df523b3ef60405160405180910390a4505050565b611a2e610a29565b611a6d576040517f08c379a0000000000000000000000000000000000000000000000000000000008152600401611a6490612ecc565b60405180910390fd5b6000600760006101000a81548160ff0219169083151502179055507f5db9ee0a495bf2e6ff9c91a7834c1ba4fdd244a5e8aa4e537bd38aeae4b073aa611ab161162b565b604051611abe9190612e28565b60405180910390a1565b6000600760019054906101000a900473ffffffffffffffffffffffffffffffffffffffff16905081600760016101000a81548173ffffffffffffffffffffffffffffffffffffffff021916908373ffffffffffffffffffffffffffffffffffffffff1602179055508173ffffffffffffffffffffffffffffffffffffffff168173ffffffffffffffffffffffffffffffffffffffff167f8be0079c531659141344cd1fd0a4f28419497f9722a3daafe3b4186f6b6457e060405160405180910390a35050565b600080600090505b600a80549050811015611c58578273ffffffffffffffffffffffffffffffffffffffff16600a8281548110611bf4577f4e487b7100000000000000000000000000000000000000000000000000000000600052603260045260246000fd5b9060005260206000200160009054906101000a900473ffffffffffffffffffffffffffffffffffffffff1673ffffffffffffffffffffffffffffffffffffffff161415611c45576001915050611c5e565b8080611c50906134df565b915050611b96565b50600090505b919050565b600081600001549050919050565b600073ffffffffffffffffffffffffffffffffffffffff168273ffffffffffffffffffffffffffffffffffffffff161415611ce1576040517f08c379a0000000000000000000000000000000000000000000000000000000008152600401611cd8906130ac565b60405180910390fd5b611cea816115bf565b15611d2a576040517f08c379a0000000000000000000000000000000000000000000000000000000008152600401611d2190612f4c565b60405180910390fd5b611d3660008383612086565b6001600360008473ffffffffffffffffffffffffffffffffffffffff1673ffffffffffffffffffffffffffffffffffffffff1681526020019081526020016000206000828254611d8691906132b1565b92505081905550816002600083815260200190815260200160002060006101000a81548173ffffffffffffffffffffffffffffffffffffffff021916908373ffffffffffffffffffffffffffffffffffffffff160217905550808273ffffffffffffffffffffffffffffffffffffffff16600073ffffffffffffffffffffffffffffffffffffffff167fddf252ad1be2c89b69c2b068fc378daa952ba7f163c4a11628f55a4df523b3ef60405160405180910390a45050565b611e48826115bf565b611e87576040517f08c379a0000000000000000000000000000000000000000000000000000000008152600401611e7e9061308c565b60405180910390fd5b80600660008481526020019081526020016000209080519060200190611eae9291906124a3565b505050565b6001816000016000828254019250508190555050565b611ed1610a29565b15611f11576040517f08c379a0000000000000000000000000000000000000000000000000000000008152600401611f089061300c565b60405180910390fd5b6001600760006101000a81548160ff0219169083151502179055507f62e78cea01bee320cd4e420270b5ea74000d11b0c9f74754ebdbfc544b05a258611f5561162b565b604051611f629190612e28565b60405180910390a1565b611f778484846117ca565b611f838484848461208b565b611fc2576040517f08c379a0000000000000000000000000000000000000000000000000000000008152600401611fb990612eec565b60405180910390fd5b50505050565b606060405180602001604052806000815250905090565b6060611fea826115bf565b612029576040517f08c379a00000000000000000000000000000000000000000000000000000000081526004016120209061314c565b60405180910390fd5b6000612033611fc8565b90506000815111612053576040518060200160405280600081525061207e565b8061205d84612222565b60405160200161206e929190612ddc565b6040516020818303038152906040525b915050919050565b505050565b60006120ac8473ffffffffffffffffffffffffffffffffffffffff166123cf565b15612215578373ffffffffffffffffffffffffffffffffffffffff1663150b7a026120d561162b565b8786866040518563ffffffff1660e01b81526004016120f79493929190612e43565b602060405180830381600087803b15801561211157600080fd5b505af192505050801561214257506040513d601f19601f8201168201806040525081019061213f9190612907565b60015b6121c5573d8060008114612172576040519150601f19603f3d011682016040523d82523d6000602084013e612177565b606091505b506000815114156121bd576040517f08c379a00000000000000000000000000000000000000000000000000000000081526004016121b490612eec565b60405180910390fd5b805181602001fd5b63150b7a0260e01b7bffffffffffffffffffffffffffffffffffffffffffffffffffffffff1916817bffffffffffffffffffffffffffffffffffffffffffffffffffffffff19161491505061221a565b600190505b949350505050565b6060600082141561226a576040518060400160405280600181526020017f300000000000000000000000000000000000000000000000000000000000000081525090506123ca565b600082905060005b6000821461229c578080612285906134df565b915050600a826122959190613307565b9150612272565b60008167ffffffffffffffff8111156122de577f4e487b7100000000000000000000000000000000000000000000000000000000600052604160045260246000fd5b6040519080825280601f01601f1916602001820160405280156123105781602001600182028036833780820191505090505b5090505b600085146123c3576001826123299190613392565b9150600a856123389190613532565b603061234491906132b1565b60f81b818381518110612380577f4e487b7100000000000000000000000000000000000000000000000000000000600052603260045260246000fd5b60200101907effffffffffffffffffffffffffffffffffffffffffffffffffffffffffffff1916908160001a905350600a856123bc9190613307565b9450612314565b8093505050505b919050565b600080823b905060008111915050919050565b50805460008255906000526020600020908101906124009190612529565b50565b828054828255906000526020600020908101928215612492579160200282015b8281111561249157823573ffffffffffffffffffffffffffffffffffffffff168260006101000a81548173ffffffffffffffffffffffffffffffffffffffff021916908373ffffffffffffffffffffffffffffffffffffffff16021790555091602001919060010190612423565b5b50905061249f9190612529565b5090565b8280546124af9061347c565b90600052602060002090601f0160209004810192826124d15760008555612518565b82601f106124ea57805160ff1916838001178555612518565b82800160010185558215612518579182015b828111156125175782518255916020019190600101906124fc565b5b5090506125259190612529565b5090565b5b8082111561254257600081600090555060010161252a565b5090565b60006125596125548461320c565b6131e7565b90508281526020810184848401111561257157600080fd5b61257c84828561343a565b509392505050565b60006125976125928461323d565b6131e7565b9050828152602081018484840111156125af57600080fd5b6125ba84828561343a565b509392505050565b6000813590506125d181613c8e565b92915050565b60008083601f8401126125e957600080fd5b8235905067ffffffffffffffff81111561260257600080fd5b60208301915083602082028301111561261a57600080fd5b9250929050565b60008135905061263081613ca5565b92915050565b60008135905061264581613cbc565b92915050565b60008151905061265a81613cbc565b92915050565b600082601f83011261267157600080fd5b8135612681848260208601612546565b91505092915050565b600082601f83011261269b57600080fd5b81356126ab848260208601612584565b91505092915050565b6000813590506126c381613cd3565b92915050565b6000602082840312156126db57600080fd5b60006126e9848285016125c2565b91505092915050565b6000806040838503121561270557600080fd5b6000612713858286016125c2565b9250506020612724858286016125c2565b9150509250929050565b60008060006060848603121561274357600080fd5b6000612751868287016125c2565b9350506020612762868287016125c2565b9250506040612773868287016126b4565b9150509250925092565b6000806000806080858703121561279357600080fd5b60006127a1878288016125c2565b94505060206127b2878288016125c2565b93505060406127c3878288016126b4565b925050606085013567ffffffffffffffff8111156127e057600080fd5b6127ec87828801612660565b91505092959194509250565b6000806040838503121561280b57600080fd5b6000612819858286016125c2565b925050602061282a85828601612621565b9150509250929050565b6000806040838503121561284757600080fd5b6000612855858286016125c2565b9250506020612866858286016126b4565b9150509250929050565b6000806020838503121561288357600080fd5b600083013567ffffffffffffffff81111561289d57600080fd5b6128a9858286016125d7565b92509250509250929050565b6000602082840312156128c757600080fd5b60006128d584828501612621565b91505092915050565b6000602082840312156128f057600080fd5b60006128fe84828501612636565b91505092915050565b60006020828403121561291957600080fd5b60006129278482850161264b565b91505092915050565b6000806040838503121561294357600080fd5b600083013567ffffffffffffffff81111561295d57600080fd5b6129698582860161268a565b925050602061297a858286016126b4565b9150509250929050565b60006020828403121561299657600080fd5b60006129a4848285016126b4565b91505092915050565b6129b6816133c6565b82525050565b6129c5816133d8565b82525050565b60006129d68261326e565b6129e08185613284565b93506129f0818560208601613449565b6129f98161361f565b840191505092915050565b6000612a0f82613279565b612a198185613295565b9350612a29818560208601613449565b612a328161361f565b840191505092915050565b6000612a4882613279565b612a5281856132a6565b9350612a62818560208601613449565b80840191505092915050565b6000612a7b601483613295565b9150612a8682613630565b602082019050919050565b6000612a9e603283613295565b9150612aa982613659565b604082019050919050565b6000612ac1602683613295565b9150612acc826136a8565b604082019050919050565b6000612ae4603f83613295565b9150612aef826136f7565b604082019050919050565b6000612b07601c83613295565b9150612b1282613746565b602082019050919050565b6000612b2a602483613295565b9150612b358261376f565b604082019050919050565b6000612b4d601983613295565b9150612b58826137be565b602082019050919050565b6000612b70602883613295565b9150612b7b826137e7565b604082019050919050565b6000612b93602c83613295565b9150612b9e82613836565b604082019050919050565b6000612bb6602583613295565b9150612bc182613885565b604082019050919050565b6000612bd9601083613295565b9150612be4826138d4565b602082019050919050565b6000612bfc603883613295565b9150612c07826138fd565b604082019050919050565b6000612c1f602a83613295565b9150612c2a8261394c565b604082019050919050565b6000612c42602983613295565b9150612c4d8261399b565b604082019050919050565b6000612c65602e83613295565b9150612c70826139ea565b604082019050919050565b6000612c88602083613295565b9150612c9382613a39565b602082019050919050565b6000612cab603183613295565b9150612cb682613a62565b604082019050919050565b6000612cce602c83613295565b9150612cd982613ab1565b604082019050919050565b6000612cf1602083613295565b9150612cfc82613b00565b602082019050919050565b6000612d14602983613295565b9150612d1f82613b29565b604082019050919050565b6000612d37602f83613295565b9150612d4282613b78565b604082019050919050565b6000612d5a602183613295565b9150612d6582613bc7565b604082019050919050565b6000612d7d603183613295565b9150612d8882613c16565b604082019050919050565b6000612da0601783613295565b9150612dab82613c65565b602082019050919050565b612dbf81613430565b82525050565b612dd6612dd182613430565b613528565b82525050565b6000612de88285612a3d565b9150612df48284612a3d565b91508190509392505050565b6000612e0c8285612a3d565b9150612e188284612dc5565b6020820191508190509392505050565b6000602082019050612e3d60008301846129ad565b92915050565b6000608082019050612e5860008301876129ad565b612e6560208301866129ad565b612e726040830185612db6565b8181036060830152612e8481846129cb565b905095945050505050565b6000602082019050612ea460008301846129bc565b92915050565b60006020820190508181036000830152612ec48184612a04565b905092915050565b60006020820190508181036000830152612ee581612a6e565b9050919050565b60006020820190508181036000830152612f0581612a91565b9050919050565b60006020820190508181036000830152612f2581612ab4565b9050919050565b60006020820190508181036000830152612f4581612ad7565b9050919050565b60006020820190508181036000830152612f6581612afa565b9050919050565b60006020820190508181036000830152612f8581612b1d565b9050919050565b60006020820190508181036000830152612fa581612b40565b9050919050565b60006020820190508181036000830152612fc581612b63565b9050919050565b60006020820190508181036000830152612fe581612b86565b9050919050565b6000602082019050818103600083015261300581612ba9565b9050919050565b6000602082019050818103600083015261302581612bcc565b9050919050565b6000602082019050818103600083015261304581612bef565b9050919050565b6000602082019050818103600083015261306581612c12565b9050919050565b6000602082019050818103600083015261308581612c35565b9050919050565b600060208201905081810360008301526130a581612c58565b9050919050565b600060208201905081810360008301526130c581612c7b565b9050919050565b600060208201905081810360008301526130e581612c9e565b9050919050565b6000602082019050818103600083015261310581612cc1565b9050919050565b6000602082019050818103600083015261312581612ce4565b9050919050565b6000602082019050818103600083015261314581612d07565b9050919050565b6000602082019050818103600083015261316581612d2a565b9050919050565b6000602082019050818103600083015261318581612d4d565b9050919050565b600060208201905081810360008301526131a581612d70565b9050919050565b600060208201905081810360008301526131c581612d93565b9050919050565b60006020820190506131e16000830184612db6565b92915050565b60006131f1613202565b90506131fd82826134ae565b919050565b6000604051905090565b600067ffffffffffffffff821115613227576132266135f0565b5b6132308261361f565b9050602081019050919050565b600067ffffffffffffffff821115613258576132576135f0565b5b6132618261361f565b9050602081019050919050565b600081519050919050565b600081519050919050565b600082825260208201905092915050565b600082825260208201905092915050565b600081905092915050565b60006132bc82613430565b91506132c783613430565b9250827fffffffffffffffffffffffffffffffffffffffffffffffffffffffffffffffff038211156132fc576132fb613563565b5b828201905092915050565b600061331282613430565b915061331d83613430565b92508261332d5761332c613592565b5b828204905092915050565b600061334382613430565b915061334e83613430565b9250817fffffffffffffffffffffffffffffffffffffffffffffffffffffffffffffffff048311821515161561338757613386613563565b5b828202905092915050565b600061339d82613430565b91506133a883613430565b9250828210156133bb576133ba613563565b5b828203905092915050565b60006133d182613410565b9050919050565b60008115159050919050565b60007fffffffff0000000000000000000000000000000000000000000000000000000082169050919050565b600073ffffffffffffffffffffffffffffffffffffffff82169050919050565b6000819050919050565b82818337600083830152505050565b60005b8381101561346757808201518184015260208101905061344c565b83811115613476576000848401525b50505050565b6000600282049050600182168061349457607f821691505b602082108114156134a8576134a76135c1565b5b50919050565b6134b78261361f565b810181811067ffffffffffffffff821117156134d6576134d56135f0565b5b80604052505050565b60006134ea82613430565b91507fffffffffffffffffffffffffffffffffffffffffffffffffffffffffffffffff82141561351d5761351c613563565b5b600182019050919050565b6000819050919050565b600061353d82613430565b915061354883613430565b92508261355857613557613592565b5b828206905092915050565b7f4e487b7100000000000000000000000000000000000000000000000000000000600052601160045260246000fd5b7f4e487b7100000000000000000000000000000000000000000000000000000000600052601260045260246000fd5b7f4e487b7100000000000000000000000000000000000000000000000000000000600052602260045260246000fd5b7f4e487b7100000000000000000000000000000000000000000000000000000000600052604160045260246000fd5b6000601f19601f8301169050919050565b7f5061757361626c653a206e6f7420706175736564000000000000000000000000600082015250565b7f4552433732313a207472616e7366657220746f206e6f6e20455243373231526560008201527f63656976657220696d706c656d656e7465720000000000000000000000000000602082015250565b7f4f776e61626c653a206e6577206f776e657220697320746865207a65726f206160008201527f6464726573730000000000000000000000000000000000000000000000000000602082015250565b7f506c656173652073656e6420616c6f6e6720302e30303035206574686572206660008201527f6f722065616368204e465420746f20636f6d706c657465206d696e74696e6700602082015250565b7f4552433732313a20746f6b656e20616c7265616479206d696e74656400000000600082015250565b7f4552433732313a207472616e7366657220746f20746865207a65726f2061646460008201527f7265737300000000000000000000000000000000000000000000000000000000602082015250565b7f4552433732313a20617070726f766520746f2063616c6c657200000000000000600082015250565b7f6d6178204e4654207065722077686974656c697374656420616464726573732060008201527f6578636565646564000000000000000000000000000000000000000000000000602082015250565b7f4552433732313a206f70657261746f7220717565727920666f72206e6f6e657860008201527f697374656e7420746f6b656e0000000000000000000000000000000000000000602082015250565b7f4d696e696d756d206e756d626572206f66206d696e7461626c6520746f6b656e60008201527f2069732031000000000000000000000000000000000000000000000000000000602082015250565b7f5061757361626c653a2070617573656400000000000000000000000000000000600082015250565b7f4552433732313a20617070726f76652063616c6c6572206973206e6f74206f7760008201527f6e6572206e6f7220617070726f76656420666f7220616c6c0000000000000000602082015250565b7f4552433732313a2062616c616e636520717565727920666f7220746865207a6560008201527f726f206164647265737300000000000000000000000000000000000000000000602082015250565b7f4552433732313a206f776e657220717565727920666f72206e6f6e657869737460008201527f656e7420746f6b656e0000000000000000000000000000000000000000000000602082015250565b7f45524337323155524953746f726167653a2055524920736574206f66206e6f6e60008201527f6578697374656e7420746f6b656e000000000000000000000000000000000000602082015250565b7f4552433732313a206d696e7420746f20746865207a65726f2061646472657373600082015250565b7f45524337323155524953746f726167653a2055524920717565727920666f722060008201527f6e6f6e6578697374656e7420746f6b656e000000000000000000000000000000602082015250565b7f4552433732313a20617070726f76656420717565727920666f72206e6f6e657860008201527f697374656e7420746f6b656e0000000000000000000000000000000000000000602082015250565b7f4f776e61626c653a2063616c6c6572206973206e6f7420746865206f776e6572600082015250565b7f4552433732313a207472616e73666572206f6620746f6b656e2074686174206960008201527f73206e6f74206f776e0000000000000000000000000000000000000000000000602082015250565b7f4552433732314d657461646174613a2055524920717565727920666f72206e6f60008201527f6e6578697374656e7420746f6b656e0000000000000000000000000000000000602082015250565b7f4552433732313a20617070726f76616c20746f2063757272656e74206f776e6560008201527f7200000000000000000000000000000000000000000000000000000000000000602082015250565b7f4552433732313a207472616e736665722063616c6c6572206973206e6f74206f60008201527f776e6572206e6f7220617070726f766564000000000000000000000000000000602082015250565b7f75736572206973206e6f742077686974656c6973746564000000000000000000600082015250565b613c97816133c6565b8114613ca257600080fd5b50565b613cae816133d8565b8114613cb957600080fd5b50565b613cc5816133e4565b8114613cd057600080fd5b50565b613cdc81613430565b8114613ce757600080fd5b5056fea2646970667358221220d4870a4ed0e3064c869d0bfcf791e6d68bc233ac78b73d4f9fa4523ae9f426a064736f6c63430008040033",
  "linkReferences": {},
  "deployedLinkReferences": {}
}