{
  "_format": "hh-sol-artifact-1",
  "contractName": "Zebra",
  "sourceName": "contracts/Zebra.sol",
  "abi": [
    {
      "inputs": [],
      "stateMutability": "nonpayable",
      "type": "constructor"
    },
    {
      "anonymous": false,
      "inputs": [
        {
          "indexed": true,
          "internalType": "address",
          "name": "owner",
          "type": "address"
        },
        {
          "indexed": true,
          "internalType": "address",
          "name": "approved",
          "type": "address"
        },
        {
          "indexed": true,
          "internalType": "uint256",
          "name": "tokenId",
          "type": "uint256"
        }
      ],
      "name": "Approval",
      "type": "event"
    },
    {
      "anonymous": false,
      "inputs": [
        {
          "indexed": true,
          "internalType": "address",
          "name": "owner",
          "type": "address"
        },
        {
          "indexed": true,
          "internalType": "address",
          "name": "operator",
          "type": "address"
        },
        {
          "indexed": false,
          "internalType": "bool",
          "name": "approved",
          "type": "bool"
        }
      ],
      "name": "ApprovalForAll",
      "type": "event"
    },
    {
      "anonymous": false,
      "inputs": [
        {
          "indexed": true,
          "internalType": "address",
          "name": "previousOwner",
          "type": "address"
        },
        {
          "indexed": true,
          "internalType": "address",
          "name": "newOwner",
          "type": "address"
        }
      ],
      "name": "OwnershipTransferred",
      "type": "event"
    },
    {
      "anonymous": false,
      "inputs": [
        {
          "indexed": false,
          "internalType": "address",
          "name": "account",
          "type": "address"
        }
      ],
      "name": "Paused",
      "type": "event"
    },
    {
      "anonymous": false,
      "inputs": [
        {
          "indexed": true,
          "internalType": "address",
          "name": "from",
          "type": "address"
        },
        {
          "indexed": true,
          "internalType": "address",
          "name": "to",
          "type": "address"
        },
        {
          "indexed": true,
          "internalType": "uint256",
          "name": "tokenId",
          "type": "uint256"
        }
      ],
      "name": "Transfer",
      "type": "event"
    },
    {
      "anonymous": false,
      "inputs": [
        {
          "indexed": false,
          "internalType": "address",
          "name": "account",
          "type": "address"
        }
      ],
      "name": "Unpaused",
      "type": "event"
    },
    {
      "inputs": [
        {
          "internalType": "address",
          "name": "to",
          "type": "address"
        },
        {
          "internalType": "uint256",
          "name": "tokenId",
          "type": "uint256"
        }
      ],
      "name": "approve",
      "outputs": [],
      "stateMutability": "nonpayable",
      "type": "function"
    },
    {
      "inputs": [
        {
          "internalType": "address",
          "name": "owner",
          "type": "address"
        }
      ],
      "name": "balanceOf",
      "outputs": [
        {
          "internalType": "uint256",
          "name": "",
          "type": "uint256"
        }
      ],
      "stateMutability": "view",
      "type": "function"
    },
    {
      "inputs": [
        {
          "internalType": "string",
          "name": "tokenURI",
          "type": "string"
        },
        {
          "internalType": "uint256",
          "name": "_mintAmount",
          "type": "uint256"
        }
      ],
      "name": "createToken",
      "outputs": [],
      "stateMutability": "payable",
      "type": "function"
    },
    {
      "inputs": [
        {
          "internalType": "uint256",
          "name": "tokenId",
          "type": "uint256"
        }
      ],
      "name": "getApproved",
      "outputs": [
        {
          "internalType": "address",
          "name": "",
          "type": "address"
        }
      ],
      "stateMutability": "view",
      "type": "function"
    },
    {
      "inputs": [
        {
          "internalType": "address",
          "name": "owner",
          "type": "address"
        },
        {
          "internalType": "address",
          "name": "operator",
          "type": "address"
        }
      ],
      "name": "isApprovedForAll",
      "outputs": [
        {
          "internalType": "bool",
          "name": "",
          "type": "bool"
        }
      ],
      "stateMutability": "view",
      "type": "function"
    },
    {
      "inputs": [],
      "name": "name",
      "outputs": [
        {
          "internalType": "string",
          "name": "",
          "type": "string"
        }
      ],
      "stateMutability": "view",
      "type": "function"
    },
    {
      "inputs": [],
      "name": "owner",
      "outputs": [
        {
          "internalType": "address",
          "name": "",
          "type": "address"
        }
      ],
      "stateMutability": "view",
      "type": "function"
    },
    {
      "inputs": [
        {
          "internalType": "uint256",
          "name": "tokenId",
          "type": "uint256"
        }
      ],
      "name": "ownerOf",
      "outputs": [
        {
          "internalType": "address",
          "name": "",
          "type": "address"
        }
      ],
      "stateMutability": "view",
      "type": "function"
    },
    {
      "inputs": [],
      "name": "pause",
      "outputs": [],
      "stateMutability": "nonpayable",
      "type": "function"
    },
    {
      "inputs": [],
      "name": "paused",
      "outputs": [
        {
          "internalType": "bool",
          "name": "",
          "type": "bool"
        }
      ],
      "stateMutability": "view",
      "type": "function"
    },
    {
      "inputs": [],
      "name": "renounceOwnership",
      "outputs": [],
      "stateMutability": "nonpayable",
      "type": "function"
    },
    {
      "inputs": [
        {
          "internalType": "address",
          "name": "from",
          "type": "address"
        },
        {
          "internalType": "address",
          "name": "to",
          "type": "address"
        },
        {
          "internalType": "uint256",
          "name": "tokenId",
          "type": "uint256"
        }
      ],
      "name": "safeTransferFrom",
      "outputs": [],
      "stateMutability": "nonpayable",
      "type": "function"
    },
    {
      "inputs": [
        {
          "internalType": "address",
          "name": "from",
          "type": "address"
        },
        {
          "internalType": "address",
          "name": "to",
          "type": "address"
        },
        {
          "internalType": "uint256",
          "name": "tokenId",
          "type": "uint256"
        },
        {
          "internalType": "bytes",
          "name": "_data",
          "type": "bytes"
        }
      ],
      "name": "safeTransferFrom",
      "outputs": [],
      "stateMutability": "nonpayable",
      "type": "function"
    },
    {
      "inputs": [
        {
          "internalType": "address",
          "name": "operator",
          "type": "address"
        },
        {
          "internalType": "bool",
          "name": "approved",
          "type": "bool"
        }
      ],
      "name": "setApprovalForAll",
      "outputs": [],
      "stateMutability": "nonpayable",
      "type": "function"
    },
    {
      "inputs": [
        {
          "internalType": "bytes4",
          "name": "interfaceId",
          "type": "bytes4"
        }
      ],
      "name": "supportsInterface",
      "outputs": [
        {
          "internalType": "bool",
          "name": "",
          "type": "bool"
        }
      ],
      "stateMutability": "view",
      "type": "function"
    },
    {
      "inputs": [],
      "name": "symbol",
      "outputs": [
        {
          "internalType": "string",
          "name": "",
          "type": "string"
        }
      ],
      "stateMutability": "view",
      "type": "function"
    },
    {
      "inputs": [
        {
          "internalType": "uint256",
          "name": "tokenId",
          "type": "uint256"
        }
      ],
      "name": "tokenURI",
      "outputs": [
        {
          "internalType": "string",
          "name": "",
          "type": "string"
        }
      ],
      "stateMutability": "view",
      "type": "function"
    },
    {
      "inputs": [
        {
          "internalType": "address",
          "name": "from",
          "type": "address"
        },
        {
          "internalType": "address",
          "name": "to",
          "type": "address"
        },
        {
          "internalType": "uint256",
          "name": "tokenId",
          "type": "uint256"
        }
      ],
      "name": "transferFrom",
      "outputs": [],
      "stateMutability": "nonpayable",
      "type": "function"
    },
    {
      "inputs": [
        {
          "internalType": "address",
          "name": "newOwner",
          "type": "address"
        }
      ],
      "name": "transferOwnership",
      "outputs": [],
      "stateMutability": "nonpayable",
      "type": "function"
    },
    {
      "inputs": [],
      "name": "unpause",
      "outputs": [],
      "stateMutability": "nonpayable",
      "type": "function"
    }
  ],
  "bytecode": "0x60806040526601c6bf526340006009553480156200001c57600080fd5b506040518060400160405280600581526020017f5a656272610000000000000000000000000000000000000000000000000000008152506040518060400160405280600381526020017f5a425200000000000000000000000000000000000000000000000000000000008152508160009080519060200190620000a1929190620001cc565b508060019080519060200190620000ba929190620001cc565b5050506000600760006101000a81548160ff021916908315150217905550620000f8620000ec620000fe60201b60201c565b6200010660201b60201c565b620002e1565b600033905090565b6000600760019054906101000a900473ffffffffffffffffffffffffffffffffffffffff16905081600760016101000a81548173ffffffffffffffffffffffffffffffffffffffff021916908373ffffffffffffffffffffffffffffffffffffffff1602179055508173ffffffffffffffffffffffffffffffffffffffff168173ffffffffffffffffffffffffffffffffffffffff167f8be0079c531659141344cd1fd0a4f28419497f9722a3daafe3b4186f6b6457e060405160405180910390a35050565b828054620001da906200027c565b90600052602060002090601f016020900481019282620001fe57600085556200024a565b82601f106200021957805160ff19168380011785556200024a565b828001600101855582156200024a579182015b82811115620002495782518255916020019190600101906200022c565b5b5090506200025991906200025d565b5090565b5b80821115620002785760008160009055506001016200025e565b5090565b600060028204905060018216806200029557607f821691505b60208210811415620002ac57620002ab620002b2565b5b50919050565b7f4e487b7100000000000000000000000000000000000000000000000000000000600052602260045260246000fd5b61362680620002f16000396000f3fe60806040526004361061011f5760003560e01c8063715018a6116100a0578063a22cb46511610064578063a22cb465146103a0578063b88d4fde146103c9578063c87b56dd146103f2578063e985e9c51461042f578063f2fde38b1461046c5761011f565b8063715018a61461030057806372b3b620146103175780638456cb59146103335780638da5cb5b1461034a57806395d89b41146103755761011f565b80633f4ba83a116100e75780633f4ba83a1461021b57806342842e0e146102325780635c975abb1461025b5780636352211e1461028657806370a08231146102c35761011f565b806301ffc9a71461012457806306fdde0314610161578063081812fc1461018c578063095ea7b3146101c957806323b872dd146101f2575b600080fd5b34801561013057600080fd5b5061014b6004803603810190610146919061233c565b610495565b60405161015891906128a7565b60405180910390f35b34801561016d57600080fd5b50610176610577565b60405161018391906128c2565b60405180910390f35b34801561019857600080fd5b506101b360048036038101906101ae91906123e2565b610609565b6040516101c09190612840565b60405180910390f35b3480156101d557600080fd5b506101f060048036038101906101eb9190612300565b61068e565b005b3480156101fe57600080fd5b50610219600480360381019061021491906121fa565b6107a6565b005b34801561022757600080fd5b50610230610806565b005b34801561023e57600080fd5b50610259600480360381019061025491906121fa565b61088c565b005b34801561026757600080fd5b506102706108ac565b60405161027d91906128a7565b60405180910390f35b34801561029257600080fd5b506102ad60048036038101906102a891906123e2565b6108c3565b6040516102ba9190612840565b60405180910390f35b3480156102cf57600080fd5b506102ea60048036038101906102e59190612195565b610975565b6040516102f79190612ba4565b60405180910390f35b34801561030c57600080fd5b50610315610a2d565b005b610331600480360381019061032c919061238e565b610ab5565b005b34801561033f57600080fd5b50610348610bfe565b005b34801561035657600080fd5b5061035f610c84565b60405161036c9190612840565b60405180910390f35b34801561038157600080fd5b5061038a610cae565b60405161039791906128c2565b60405180910390f35b3480156103ac57600080fd5b506103c760048036038101906103c291906122c4565b610d40565b005b3480156103d557600080fd5b506103f060048036038101906103eb9190612249565b610ec1565b005b3480156103fe57600080fd5b50610419600480360381019061041491906123e2565b610f23565b60405161042691906128c2565b60405180910390f35b34801561043b57600080fd5b50610456600480360381019061045191906121be565b611075565b60405161046391906128a7565b60405180910390f35b34801561047857600080fd5b50610493600480360381019061048e9190612195565b611109565b005b60007f80ac58cd000000000000000000000000000000000000000000000000000000007bffffffffffffffffffffffffffffffffffffffffffffffffffffffff1916827bffffffffffffffffffffffffffffffffffffffffffffffffffffffff1916148061056057507f5b5e139f000000000000000000000000000000000000000000000000000000007bffffffffffffffffffffffffffffffffffffffffffffffffffffffff1916827bffffffffffffffffffffffffffffffffffffffffffffffffffffffff1916145b80610570575061056f82611201565b5b9050919050565b60606000805461058690612dfa565b80601f01602080910402602001604051908101604052809291908181526020018280546105b290612dfa565b80156105ff5780601f106105d4576101008083540402835291602001916105ff565b820191906000526020600020905b8154815290600101906020018083116105e257829003601f168201915b5050505050905090565b60006106148261126b565b610653576040517f08c379a000000000000000000000000000000000000000000000000000000000815260040161064a90612ac4565b60405180910390fd5b6004600083815260200190815260200160002060009054906101000a900473ffffffffffffffffffffffffffffffffffffffff169050919050565b6000610699826108c3565b90508073ffffffffffffffffffffffffffffffffffffffff168373ffffffffffffffffffffffffffffffffffffffff16141561070a576040517f08c379a000000000000000000000000000000000000000000000000000000000815260040161070190612b44565b60405180910390fd5b8073ffffffffffffffffffffffffffffffffffffffff166107296112d7565b73ffffffffffffffffffffffffffffffffffffffff1614806107585750610757816107526112d7565b611075565b5b610797576040517f08c379a000000000000000000000000000000000000000000000000000000000815260040161078e90612a04565b60405180910390fd5b6107a183836112df565b505050565b6107b76107b16112d7565b82611398565b6107f6576040517f08c379a00000000000000000000000000000000000000000000000000000000081526004016107ed90612b64565b60405180910390fd5b610801838383611476565b505050565b61080e6112d7565b73ffffffffffffffffffffffffffffffffffffffff1661082c610c84565b73ffffffffffffffffffffffffffffffffffffffff1614610882576040517f08c379a000000000000000000000000000000000000000000000000000000000815260040161087990612ae4565b60405180910390fd5b61088a6116d2565b565b6108a783838360405180602001604052806000815250610ec1565b505050565b6000600760009054906101000a900460ff16905090565b6000806002600084815260200190815260200160002060009054906101000a900473ffffffffffffffffffffffffffffffffffffffff169050600073ffffffffffffffffffffffffffffffffffffffff168173ffffffffffffffffffffffffffffffffffffffff16141561096c576040517f08c379a000000000000000000000000000000000000000000000000000000000815260040161096390612a44565b60405180910390fd5b80915050919050565b60008073ffffffffffffffffffffffffffffffffffffffff168273ffffffffffffffffffffffffffffffffffffffff1614156109e6576040517f08c379a00000000000000000000000000000000000000000000000000000000081526004016109dd90612a24565b60405180910390fd5b600360008373ffffffffffffffffffffffffffffffffffffffff1673ffffffffffffffffffffffffffffffffffffffff168152602001908152602001600020549050919050565b610a356112d7565b73ffffffffffffffffffffffffffffffffffffffff16610a53610c84565b73ffffffffffffffffffffffffffffffffffffffff1614610aa9576040517f08c379a0000000000000000000000000000000000000000000000000000000008152600401610aa090612ae4565b60405180910390fd5b610ab36000611774565b565b610abd6108ac565b15610afd576040517f08c379a0000000000000000000000000000000000000000000000000000000008152600401610af4906129e4565b60405180910390fd5b60008111610b40576040517f08c379a0000000000000000000000000000000000000000000000000000000008152600401610b37906129c4565b60405180910390fd5b6009543414610b84576040517f08c379a0000000000000000000000000000000000000000000000000000000008152600401610b7b90612b84565b60405180910390fd5b6000600190505b818111610bf9576000610b9e600861183a565b9050610baa3382611848565b60008483604051602001610bbf929190612818565b6040516020818303038152906040529050610bda8282611a16565b610be46008611a8a565b50508080610bf190612e5d565b915050610b8b565b505050565b610c066112d7565b73ffffffffffffffffffffffffffffffffffffffff16610c24610c84565b73ffffffffffffffffffffffffffffffffffffffff1614610c7a576040517f08c379a0000000000000000000000000000000000000000000000000000000008152600401610c7190612ae4565b60405180910390fd5b610c82611aa0565b565b6000600760019054906101000a900473ffffffffffffffffffffffffffffffffffffffff16905090565b606060018054610cbd90612dfa565b80601f0160208091040260200160405190810160405280929190818152602001828054610ce990612dfa565b8015610d365780601f10610d0b57610100808354040283529160200191610d36565b820191906000526020600020905b815481529060010190602001808311610d1957829003601f168201915b5050505050905090565b610d486112d7565b73ffffffffffffffffffffffffffffffffffffffff168273ffffffffffffffffffffffffffffffffffffffff161415610db6576040517f08c379a0000000000000000000000000000000000000000000000000000000008152600401610dad90612984565b60405180910390fd5b8060056000610dc36112d7565b73ffffffffffffffffffffffffffffffffffffffff1673ffffffffffffffffffffffffffffffffffffffff16815260200190815260200160002060008473ffffffffffffffffffffffffffffffffffffffff1673ffffffffffffffffffffffffffffffffffffffff16815260200190815260200160002060006101000a81548160ff0219169083151502179055508173ffffffffffffffffffffffffffffffffffffffff16610e706112d7565b73ffffffffffffffffffffffffffffffffffffffff167f17307eab39ab6107e8899845ad3d59bd9653f200f220920489ca2b5937696c3183604051610eb591906128a7565b60405180910390a35050565b610ed2610ecc6112d7565b83611398565b610f11576040517f08c379a0000000000000000000000000000000000000000000000000000000008152600401610f0890612b64565b60405180910390fd5b610f1d84848484611b43565b50505050565b6060610f2e8261126b565b610f6d576040517f08c379a0000000000000000000000000000000000000000000000000000000008152600401610f6490612aa4565b60405180910390fd5b6000600660008481526020019081526020016000208054610f8d90612dfa565b80601f0160208091040260200160405190810160405280929190818152602001828054610fb990612dfa565b80156110065780601f10610fdb57610100808354040283529160200191611006565b820191906000526020600020905b815481529060010190602001808311610fe957829003601f168201915b505050505090506000611017611b9f565b905060008151141561102d578192505050611070565b60008251111561106257808260405160200161104a9291906127f4565b60405160208183030381529060405292505050611070565b61106b84611bb6565b925050505b919050565b6000600560008473ffffffffffffffffffffffffffffffffffffffff1673ffffffffffffffffffffffffffffffffffffffff16815260200190815260200160002060008373ffffffffffffffffffffffffffffffffffffffff1673ffffffffffffffffffffffffffffffffffffffff16815260200190815260200160002060009054906101000a900460ff16905092915050565b6111116112d7565b73ffffffffffffffffffffffffffffffffffffffff1661112f610c84565b73ffffffffffffffffffffffffffffffffffffffff1614611185576040517f08c379a000000000000000000000000000000000000000000000000000000000815260040161117c90612ae4565b60405180910390fd5b600073ffffffffffffffffffffffffffffffffffffffff168173ffffffffffffffffffffffffffffffffffffffff1614156111f5576040517f08c379a00000000000000000000000000000000000000000000000000000000081526004016111ec90612924565b60405180910390fd5b6111fe81611774565b50565b60007f01ffc9a7000000000000000000000000000000000000000000000000000000007bffffffffffffffffffffffffffffffffffffffffffffffffffffffff1916827bffffffffffffffffffffffffffffffffffffffffffffffffffffffff1916149050919050565b60008073ffffffffffffffffffffffffffffffffffffffff166002600084815260200190815260200160002060009054906101000a900473ffffffffffffffffffffffffffffffffffffffff1673ffffffffffffffffffffffffffffffffffffffff1614159050919050565b600033905090565b816004600083815260200190815260200160002060006101000a81548173ffffffffffffffffffffffffffffffffffffffff021916908373ffffffffffffffffffffffffffffffffffffffff160217905550808273ffffffffffffffffffffffffffffffffffffffff16611352836108c3565b73ffffffffffffffffffffffffffffffffffffffff167f8c5be1e5ebec7d5bd14f71427d1e84f3dd0314c0f7b2291e5b200ac8c7c3b92560405160405180910390a45050565b60006113a38261126b565b6113e2576040517f08c379a00000000000000000000000000000000000000000000000000000000081526004016113d9906129a4565b60405180910390fd5b60006113ed836108c3565b90508073ffffffffffffffffffffffffffffffffffffffff168473ffffffffffffffffffffffffffffffffffffffff16148061145c57508373ffffffffffffffffffffffffffffffffffffffff1661144484610609565b73ffffffffffffffffffffffffffffffffffffffff16145b8061146d575061146c8185611075565b5b91505092915050565b8273ffffffffffffffffffffffffffffffffffffffff16611496826108c3565b73ffffffffffffffffffffffffffffffffffffffff16146114ec576040517f08c379a00000000000000000000000000000000000000000000000000000000081526004016114e390612b04565b60405180910390fd5b600073ffffffffffffffffffffffffffffffffffffffff168273ffffffffffffffffffffffffffffffffffffffff16141561155c576040517f08c379a000000000000000000000000000000000000000000000000000000000815260040161155390612964565b60405180910390fd5b611567838383611c5d565b6115726000826112df565b6001600360008573ffffffffffffffffffffffffffffffffffffffff1673ffffffffffffffffffffffffffffffffffffffff16815260200190815260200160002060008282546115c29190612d10565b925050819055506001600360008473ffffffffffffffffffffffffffffffffffffffff1673ffffffffffffffffffffffffffffffffffffffff16815260200190815260200160002060008282546116199190612c89565b92505081905550816002600083815260200190815260200160002060006101000a81548173ffffffffffffffffffffffffffffffffffffffff021916908373ffffffffffffffffffffffffffffffffffffffff160217905550808273ffffffffffffffffffffffffffffffffffffffff168473ffffffffffffffffffffffffffffffffffffffff167fddf252ad1be2c89b69c2b068fc378daa952ba7f163c4a11628f55a4df523b3ef60405160405180910390a4505050565b6116da6108ac565b611719576040517f08c379a0000000000000000000000000000000000000000000000000000000008152600401611710906128e4565b60405180910390fd5b6000600760006101000a81548160ff0219169083151502179055507f5db9ee0a495bf2e6ff9c91a7834c1ba4fdd244a5e8aa4e537bd38aeae4b073aa61175d6112d7565b60405161176a9190612840565b60405180910390a1565b6000600760019054906101000a900473ffffffffffffffffffffffffffffffffffffffff16905081600760016101000a81548173ffffffffffffffffffffffffffffffffffffffff021916908373ffffffffffffffffffffffffffffffffffffffff1602179055508173ffffffffffffffffffffffffffffffffffffffff168173ffffffffffffffffffffffffffffffffffffffff167f8be0079c531659141344cd1fd0a4f28419497f9722a3daafe3b4186f6b6457e060405160405180910390a35050565b600081600001549050919050565b600073ffffffffffffffffffffffffffffffffffffffff168273ffffffffffffffffffffffffffffffffffffffff1614156118b8576040517f08c379a00000000000000000000000000000000000000000000000000000000081526004016118af90612a84565b60405180910390fd5b6118c18161126b565b15611901576040517f08c379a00000000000000000000000000000000000000000000000000000000081526004016118f890612944565b60405180910390fd5b61190d60008383611c5d565b6001600360008473ffffffffffffffffffffffffffffffffffffffff1673ffffffffffffffffffffffffffffffffffffffff168152602001908152602001600020600082825461195d9190612c89565b92505081905550816002600083815260200190815260200160002060006101000a81548173ffffffffffffffffffffffffffffffffffffffff021916908373ffffffffffffffffffffffffffffffffffffffff160217905550808273ffffffffffffffffffffffffffffffffffffffff16600073ffffffffffffffffffffffffffffffffffffffff167fddf252ad1be2c89b69c2b068fc378daa952ba7f163c4a11628f55a4df523b3ef60405160405180910390a45050565b611a1f8261126b565b611a5e576040517f08c379a0000000000000000000000000000000000000000000000000000000008152600401611a5590612a64565b60405180910390fd5b80600660008481526020019081526020016000209080519060200190611a85929190611fb9565b505050565b6001816000016000828254019250508190555050565b611aa86108ac565b15611ae8576040517f08c379a0000000000000000000000000000000000000000000000000000000008152600401611adf906129e4565b60405180910390fd5b6001600760006101000a81548160ff0219169083151502179055507f62e78cea01bee320cd4e420270b5ea74000d11b0c9f74754ebdbfc544b05a258611b2c6112d7565b604051611b399190612840565b60405180910390a1565b611b4e848484611476565b611b5a84848484611c62565b611b99576040517f08c379a0000000000000000000000000000000000000000000000000000000008152600401611b9090612904565b60405180910390fd5b50505050565b606060405180602001604052806000815250905090565b6060611bc18261126b565b611c00576040517f08c379a0000000000000000000000000000000000000000000000000000000008152600401611bf790612b24565b60405180910390fd5b6000611c0a611b9f565b90506000815111611c2a5760405180602001604052806000815250611c55565b80611c3484611df9565b604051602001611c459291906127f4565b6040516020818303038152906040525b915050919050565b505050565b6000611c838473ffffffffffffffffffffffffffffffffffffffff16611fa6565b15611dec578373ffffffffffffffffffffffffffffffffffffffff1663150b7a02611cac6112d7565b8786866040518563ffffffff1660e01b8152600401611cce949392919061285b565b602060405180830381600087803b158015611ce857600080fd5b505af1925050508015611d1957506040513d601f19601f82011682018060405250810190611d169190612365565b60015b611d9c573d8060008114611d49576040519150601f19603f3d011682016040523d82523d6000602084013e611d4e565b606091505b50600081511415611d94576040517f08c379a0000000000000000000000000000000000000000000000000000000008152600401611d8b90612904565b60405180910390fd5b805181602001fd5b63150b7a0260e01b7bffffffffffffffffffffffffffffffffffffffffffffffffffffffff1916817bffffffffffffffffffffffffffffffffffffffffffffffffffffffff191614915050611df1565b600190505b949350505050565b60606000821415611e41576040518060400160405280600181526020017f30000000000000000000000000000000000000000000000000000000000000008152509050611fa1565b600082905060005b60008214611e73578080611e5c90612e5d565b915050600a82611e6c9190612cdf565b9150611e49565b60008167ffffffffffffffff811115611eb5577f4e487b7100000000000000000000000000000000000000000000000000000000600052604160045260246000fd5b6040519080825280601f01601f191660200182016040528015611ee75781602001600182028036833780820191505090505b5090505b60008514611f9a57600182611f009190612d10565b9150600a85611f0f9190612eb0565b6030611f1b9190612c89565b60f81b818381518110611f57577f4e487b7100000000000000000000000000000000000000000000000000000000600052603260045260246000fd5b60200101907effffffffffffffffffffffffffffffffffffffffffffffffffffffffffffff1916908160001a905350600a85611f939190612cdf565b9450611eeb565b8093505050505b919050565b600080823b905060008111915050919050565b828054611fc590612dfa565b90600052602060002090601f016020900481019282611fe7576000855561202e565b82601f1061200057805160ff191683800117855561202e565b8280016001018555821561202e579182015b8281111561202d578251825591602001919060010190612012565b5b50905061203b919061203f565b5090565b5b80821115612058576000816000905550600101612040565b5090565b600061206f61206a84612be4565b612bbf565b90508281526020810184848401111561208757600080fd5b612092848285612db8565b509392505050565b60006120ad6120a884612c15565b612bbf565b9050828152602081018484840111156120c557600080fd5b6120d0848285612db8565b509392505050565b6000813590506120e781613594565b92915050565b6000813590506120fc816135ab565b92915050565b600081359050612111816135c2565b92915050565b600081519050612126816135c2565b92915050565b600082601f83011261213d57600080fd5b813561214d84826020860161205c565b91505092915050565b600082601f83011261216757600080fd5b813561217784826020860161209a565b91505092915050565b60008135905061218f816135d9565b92915050565b6000602082840312156121a757600080fd5b60006121b5848285016120d8565b91505092915050565b600080604083850312156121d157600080fd5b60006121df858286016120d8565b92505060206121f0858286016120d8565b9150509250929050565b60008060006060848603121561220f57600080fd5b600061221d868287016120d8565b935050602061222e868287016120d8565b925050604061223f86828701612180565b9150509250925092565b6000806000806080858703121561225f57600080fd5b600061226d878288016120d8565b945050602061227e878288016120d8565b935050604061228f87828801612180565b925050606085013567ffffffffffffffff8111156122ac57600080fd5b6122b88782880161212c565b91505092959194509250565b600080604083850312156122d757600080fd5b60006122e5858286016120d8565b92505060206122f6858286016120ed565b9150509250929050565b6000806040838503121561231357600080fd5b6000612321858286016120d8565b925050602061233285828601612180565b9150509250929050565b60006020828403121561234e57600080fd5b600061235c84828501612102565b91505092915050565b60006020828403121561237757600080fd5b600061238584828501612117565b91505092915050565b600080604083850312156123a157600080fd5b600083013567ffffffffffffffff8111156123bb57600080fd5b6123c785828601612156565b92505060206123d885828601612180565b9150509250929050565b6000602082840312156123f457600080fd5b600061240284828501612180565b91505092915050565b61241481612d44565b82525050565b61242381612d56565b82525050565b600061243482612c46565b61243e8185612c5c565b935061244e818560208601612dc7565b61245781612f9d565b840191505092915050565b600061246d82612c51565b6124778185612c6d565b9350612487818560208601612dc7565b61249081612f9d565b840191505092915050565b60006124a682612c51565b6124b08185612c7e565b93506124c0818560208601612dc7565b80840191505092915050565b60006124d9601483612c6d565b91506124e482612fae565b602082019050919050565b60006124fc603283612c6d565b915061250782612fd7565b604082019050919050565b600061251f602683612c6d565b915061252a82613026565b604082019050919050565b6000612542601c83612c6d565b915061254d82613075565b602082019050919050565b6000612565602483612c6d565b91506125708261309e565b604082019050919050565b6000612588601983612c6d565b9150612593826130ed565b602082019050919050565b60006125ab602c83612c6d565b91506125b682613116565b604082019050919050565b60006125ce602583612c6d565b91506125d982613165565b604082019050919050565b60006125f1601083612c6d565b91506125fc826131b4565b602082019050919050565b6000612614603883612c6d565b915061261f826131dd565b604082019050919050565b6000612637602a83612c6d565b91506126428261322c565b604082019050919050565b600061265a602983612c6d565b91506126658261327b565b604082019050919050565b600061267d602e83612c6d565b9150612688826132ca565b604082019050919050565b60006126a0602083612c6d565b91506126ab82613319565b602082019050919050565b60006126c3603183612c6d565b91506126ce82613342565b604082019050919050565b60006126e6602c83612c6d565b91506126f182613391565b604082019050919050565b6000612709602083612c6d565b9150612714826133e0565b602082019050919050565b600061272c602983612c6d565b915061273782613409565b604082019050919050565b600061274f602f83612c6d565b915061275a82613458565b604082019050919050565b6000612772602183612c6d565b915061277d826134a7565b604082019050919050565b6000612795603183612c6d565b91506127a0826134f6565b604082019050919050565b60006127b8603283612c6d565b91506127c382613545565b604082019050919050565b6127d781612dae565b82525050565b6127ee6127e982612dae565b612ea6565b82525050565b6000612800828561249b565b915061280c828461249b565b91508190509392505050565b6000612824828561249b565b915061283082846127dd565b6020820191508190509392505050565b6000602082019050612855600083018461240b565b92915050565b6000608082019050612870600083018761240b565b61287d602083018661240b565b61288a60408301856127ce565b818103606083015261289c8184612429565b905095945050505050565b60006020820190506128bc600083018461241a565b92915050565b600060208201905081810360008301526128dc8184612462565b905092915050565b600060208201905081810360008301526128fd816124cc565b9050919050565b6000602082019050818103600083015261291d816124ef565b9050919050565b6000602082019050818103600083015261293d81612512565b9050919050565b6000602082019050818103600083015261295d81612535565b9050919050565b6000602082019050818103600083015261297d81612558565b9050919050565b6000602082019050818103600083015261299d8161257b565b9050919050565b600060208201905081810360008301526129bd8161259e565b9050919050565b600060208201905081810360008301526129dd816125c1565b9050919050565b600060208201905081810360008301526129fd816125e4565b9050919050565b60006020820190508181036000830152612a1d81612607565b9050919050565b60006020820190508181036000830152612a3d8161262a565b9050919050565b60006020820190508181036000830152612a5d8161264d565b9050919050565b60006020820190508181036000830152612a7d81612670565b9050919050565b60006020820190508181036000830152612a9d81612693565b9050919050565b60006020820190508181036000830152612abd816126b6565b9050919050565b60006020820190508181036000830152612add816126d9565b9050919050565b60006020820190508181036000830152612afd816126fc565b9050919050565b60006020820190508181036000830152612b1d8161271f565b9050919050565b60006020820190508181036000830152612b3d81612742565b9050919050565b60006020820190508181036000830152612b5d81612765565b9050919050565b60006020820190508181036000830152612b7d81612788565b9050919050565b60006020820190508181036000830152612b9d816127ab565b9050919050565b6000602082019050612bb960008301846127ce565b92915050565b6000612bc9612bda565b9050612bd58282612e2c565b919050565b6000604051905090565b600067ffffffffffffffff821115612bff57612bfe612f6e565b5b612c0882612f9d565b9050602081019050919050565b600067ffffffffffffffff821115612c3057612c2f612f6e565b5b612c3982612f9d565b9050602081019050919050565b600081519050919050565b600081519050919050565b600082825260208201905092915050565b600082825260208201905092915050565b600081905092915050565b6000612c9482612dae565b9150612c9f83612dae565b9250827fffffffffffffffffffffffffffffffffffffffffffffffffffffffffffffffff03821115612cd457612cd3612ee1565b5b828201905092915050565b6000612cea82612dae565b9150612cf583612dae565b925082612d0557612d04612f10565b5b828204905092915050565b6000612d1b82612dae565b9150612d2683612dae565b925082821015612d3957612d38612ee1565b5b828203905092915050565b6000612d4f82612d8e565b9050919050565b60008115159050919050565b60007fffffffff0000000000000000000000000000000000000000000000000000000082169050919050565b600073ffffffffffffffffffffffffffffffffffffffff82169050919050565b6000819050919050565b82818337600083830152505050565b60005b83811015612de5578082015181840152602081019050612dca565b83811115612df4576000848401525b50505050565b60006002820490506001821680612e1257607f821691505b60208210811415612e2657612e25612f3f565b5b50919050565b612e3582612f9d565b810181811067ffffffffffffffff82111715612e5457612e53612f6e565b5b80604052505050565b6000612e6882612dae565b91507fffffffffffffffffffffffffffffffffffffffffffffffffffffffffffffffff821415612e9b57612e9a612ee1565b5b600182019050919050565b6000819050919050565b6000612ebb82612dae565b9150612ec683612dae565b925082612ed657612ed5612f10565b5b828206905092915050565b7f4e487b7100000000000000000000000000000000000000000000000000000000600052601160045260246000fd5b7f4e487b7100000000000000000000000000000000000000000000000000000000600052601260045260246000fd5b7f4e487b7100000000000000000000000000000000000000000000000000000000600052602260045260246000fd5b7f4e487b7100000000000000000000000000000000000000000000000000000000600052604160045260246000fd5b6000601f19601f8301169050919050565b7f5061757361626c653a206e6f7420706175736564000000000000000000000000600082015250565b7f4552433732313a207472616e7366657220746f206e6f6e20455243373231526560008201527f63656976657220696d706c656d656e7465720000000000000000000000000000602082015250565b7f4f776e61626c653a206e6577206f776e657220697320746865207a65726f206160008201527f6464726573730000000000000000000000000000000000000000000000000000602082015250565b7f4552433732313a20746f6b656e20616c7265616479206d696e74656400000000600082015250565b7f4552433732313a207472616e7366657220746f20746865207a65726f2061646460008201527f7265737300000000000000000000000000000000000000000000000000000000602082015250565b7f4552433732313a20617070726f766520746f2063616c6c657200000000000000600082015250565b7f4552433732313a206f70657261746f7220717565727920666f72206e6f6e657860008201527f697374656e7420746f6b656e0000000000000000000000000000000000000000602082015250565b7f4d696e696d756d206e756d626572206f66206d696e7461626c6520746f6b656e60008201527f2069732031000000000000000000000000000000000000000000000000000000602082015250565b7f5061757361626c653a2070617573656400000000000000000000000000000000600082015250565b7f4552433732313a20617070726f76652063616c6c6572206973206e6f74206f7760008201527f6e6572206e6f7220617070726f76656420666f7220616c6c0000000000000000602082015250565b7f4552433732313a2062616c616e636520717565727920666f7220746865207a6560008201527f726f206164647265737300000000000000000000000000000000000000000000602082015250565b7f4552433732313a206f776e657220717565727920666f72206e6f6e657869737460008201527f656e7420746f6b656e0000000000000000000000000000000000000000000000602082015250565b7f45524337323155524953746f726167653a2055524920736574206f66206e6f6e60008201527f6578697374656e7420746f6b656e000000000000000000000000000000000000602082015250565b7f4552433732313a206d696e7420746f20746865207a65726f2061646472657373600082015250565b7f45524337323155524953746f726167653a2055524920717565727920666f722060008201527f6e6f6e6578697374656e7420746f6b656e000000000000000000000000000000602082015250565b7f4552433732313a20617070726f76656420717565727920666f72206e6f6e657860008201527f697374656e7420746f6b656e0000000000000000000000000000000000000000602082015250565b7f4f776e61626c653a2063616c6c6572206973206e6f7420746865206f776e6572600082015250565b7f4552433732313a207472616e73666572206f6620746f6b656e2074686174206960008201527f73206e6f74206f776e0000000000000000000000000000000000000000000000602082015250565b7f4552433732314d657461646174613a2055524920717565727920666f72206e6f60008201527f6e6578697374656e7420746f6b656e0000000000000000000000000000000000602082015250565b7f4552433732313a20617070726f76616c20746f2063757272656e74206f776e6560008201527f7200000000000000000000000000000000000000000000000000000000000000602082015250565b7f4552433732313a207472616e736665722063616c6c6572206973206e6f74206f60008201527f776e6572206e6f7220617070726f766564000000000000000000000000000000602082015250565b7f506c656173652073656e6420616c6f6e6720302e30303035206574686572207460008201527f6f20636f6d706c657465206d696e74696e670000000000000000000000000000602082015250565b61359d81612d44565b81146135a857600080fd5b50565b6135b481612d56565b81146135bf57600080fd5b50565b6135cb81612d62565b81146135d657600080fd5b50565b6135e281612dae565b81146135ed57600080fd5b5056fea2646970667358221220496680755678ca8966278a421e83c661c3cc73c1fe6a3f8dde3f7d9f429e097e64736f6c63430008040033",
  "linkReferences": {},
  "deployedLinkReferences": {}
}